{
  "transactions": [
    {
      "hash": "0x7c75964334b537acc6f3a8a7ef91434a34c1316126047ddfc4d55186d07353b8",
      "transactionType": "CREATE",
      "contractName": "RwaRegistry",
      "contractAddress": "0xaC8a4758B568EC09FD52F9Ec6Ff7Bc0383e710AD",
      "function": null,
      "arguments": null,
      "rpc": "http://localhost:8546",
      "transaction": {
        "type": "0x02",
        "from": "0xf1fdf86e249535cdea1cd2baead3c9b234d75d2a",
        "gas": "0x403c37",
        "value": "0x0",
        "data": "0x60806040523480156200001157600080fd5b506200004d7f75726e00000000000000000000000000000000000000000000000000000000006001620003d560201b62001c061790919060201c565b507f75726e00000000000000000000000000000000000000000000000000000000007f70a73d328842241b7c45cb20fd99acd1332f2a97ac34dfbe2477d2595dd0f6cc60405160405180910390a2620000d67f6c69717569646174696f6e4f7261636c650000000000000000000000000000006001620003d560201b62001c061790919060201c565b507f6c69717569646174696f6e4f7261636c650000000000000000000000000000007f70a73d328842241b7c45cb20fd99acd1332f2a97ac34dfbe2477d2595dd0f6cc60405160405180910390a26200015f7f6f7574707574436f6e64756974000000000000000000000000000000000000006001620003d560201b62001c061790919060201c565b507f6f7574707574436f6e64756974000000000000000000000000000000000000007f70a73d328842241b7c45cb20fd99acd1332f2a97ac34dfbe2477d2595dd0f6cc60405160405180910390a2620001e87f696e707574436f6e6475697400000000000000000000000000000000000000006001620003d560201b62001c061790919060201c565b507f696e707574436f6e6475697400000000000000000000000000000000000000007f70a73d328842241b7c45cb20fd99acd1332f2a97ac34dfbe2477d2595dd0f6cc60405160405180910390a2620002717f6a617200000000000000000000000000000000000000000000000000000000006001620003d560201b62001c061790919060201c565b507f6a617200000000000000000000000000000000000000000000000000000000007f70a73d328842241b7c45cb20fd99acd1332f2a97ac34dfbe2477d2595dd0f6cc60405160405180910390a2620002fa7f6a6172496e707574436f6e6475697400000000000000000000000000000000006001620003d560201b62001c061790919060201c565b507f6a6172496e707574436f6e6475697400000000000000000000000000000000007f70a73d328842241b7c45cb20fd99acd1332f2a97ac34dfbe2477d2595dd0f6cc60405160405180910390a260016000803373ffffffffffffffffffffffffffffffffffffffff1673ffffffffffffffffffffffffffffffffffffffff168152602001908152602001600020819055503373ffffffffffffffffffffffffffffffffffffffff167fdd0e34038ac38b2a1ce960229778ac48a8719bc900b6c4f8d0475c6e8b385a6060405160405180910390a262000491565b6000620003ec8360000183620003f460201b60201c565b905092915050565b60006200040883836200046e60201b60201c565b6200046357826000018290806001815401808255809150506001900390600052602060002001600090919091909150558260000180549050836001016000848152602001908152602001600020819055506001905062000468565b600090505b92915050565b600080836001016000848152602001908152602001600020541415905092915050565b6133c980620004a16000396000f3fe608060405234801561001057600080fd5b50600436106101725760003560e01c806361bc161a116100de578063b44eb54711610097578063ca11325e11610071578063ca11325e14610481578063cec35203146104b1578063f27304b0146104e1578063fbcdec031461051357610172565b8063b44eb54714610405578063b7dc560f14610421578063bf353dbb1461045157610172565b806361bc161a1461034757806365fae35e1461037957806392584d801461039557806395bc2673146103b15780639c52a7f1146103cd578063a48f9749146103e957610172565b8063456718691161013057806345671869146102385780634d637a4d146102695780635d175c20146102995780635f52c59c146102c95780635fa99d2c146102f95780636017b9c01461031757610172565b806267122f1461017757806306661abd146101a85780630e14edc1146101c65780630f560cd7146101e25780633e24aebf14610200578063446bffba1461021c575b600080fd5b610191600480360381019061018c9190612384565b610543565b60405161019f929190612441565b60405180910390f35b6101b06105cd565b6040516101bd919061246a565b60405180910390f35b6101e060048036038101906101db9190612596565b6105de565b005b6101ea610680565b6040516101f7919061271d565b60405180910390f35b61021a6004803603810190610215919061273f565b610691565b005b61023660048036038101906102319190612384565b610824565b005b610252600480360381019061024d919061273f565b6108b1565b6040516102609291906127c0565b60405180910390f35b610283600480360381019061027e9190612384565b610a17565b604051610290919061246a565b60405180910390f35b6102b360048036038101906102ae9190612815565b610abb565b6040516102c0919061271d565b60405180910390f35b6102e360048036038101906102de9190612868565b610c6b565b6040516102f091906128a4565b60405180910390f35b610301610c88565b60405161030e919061271d565b60405180910390f35b610331600480360381019061032c9190612384565b610c99565b60405161033e919061271d565b60405180910390f35b610361600480360381019061035c9190612384565b610d3e565b60405161037093929190612a3b565b60405180910390f35b610393600480360381019061038e9190612ab3565b610f83565b005b6103af60048036038101906103aa9190612384565b61108e565b005b6103cb60048036038101906103c69190612384565b6111fc565b005b6103e760048036038101906103e29190612ab3565b6113b9565b005b61040360048036038101906103fe9190612384565b6114c4565b005b61041f600480360381019061041a9190612ae0565b6115de565b005b61043b60048036038101906104369190612384565b611701565b6040516104489190612b62565b60405180910390f35b61046b60048036038101906104669190612ab3565b611755565b604051610478919061246a565b60405180910390f35b61049b6004803603810190610496919061273f565b61176d565b6040516104a89190612b62565b60405180910390f35b6104cb60048036038101906104c69190612384565b6117af565b6040516104d89190612b62565b60405180910390f35b6104fb60048036038101906104f69190612815565b6117cc565b60405161050a93929190612a3b565b60405180910390f35b61052d60048036038101906105289190612b7d565b611aeb565b60405161053a919061271d565b60405180910390f35b60008060006005600085815260200190815260200160002090508060000160009054906101000a900460ff168160000160019054906101000a90047effffffffffffffffffffffffffffffffffffffffffffffffffffffffffffff16807effffffffffffffffffffffffffffffffffffffffffffffffffffffffffffff1690509250925050915091565b60006105d96003611c1d565b905090565b60016000803373ffffffffffffffffffffffffffffffffffffffff1673ffffffffffffffffffffffffffffffffffffffff168152602001908152602001600020541461065f576040517f08c379a000000000000000000000000000000000000000000000000000000000815260040161065690612c1a565b60405180910390fd5b61066887611c32565b61067787878787878787611d96565b50505050505050565b606061068c6003611e79565b905090565b60016000803373ffffffffffffffffffffffffffffffffffffffff1673ffffffffffffffffffffffffffffffffffffffff1681526020019081526020016000205414610712576040517f08c379a000000000000000000000000000000000000000000000000000000000815260040161070990612c1a565b60405180910390fd5b60006005600084815260200190815260200160002090506001600281111561073d5761073c6123b1565b5b8160000160009054906101000a900460ff166002811115610761576107606123b1565b5b146107a1576040517f08c379a000000000000000000000000000000000000000000000000000000000815260040161079890612c86565b60405180910390fd5b6107b78282600101611e9a90919063ffffffff16565b50806003016000838152602001908152602001600020600080820160006101000a81549060ff02191690556000820160016101000a81549073ffffffffffffffffffffffffffffffffffffffff02191690556000820160156101000a81549060ff02191690555050505050565b60016000803373ffffffffffffffffffffffffffffffffffffffff1673ffffffffffffffffffffffffffffffffffffffff16815260200190815260200160002054146108a5576040517f08c379a000000000000000000000000000000000000000000000000000000000815260040161089c90612c1a565b60405180910390fd5b6108ae81611c32565b50565b6000806000600560008681526020019081526020016000209050600060028111156108df576108de6123b1565b5b8160000160009054906101000a900460ff166002811115610903576109026123b1565b5b03610943576040517f08c379a000000000000000000000000000000000000000000000000000000000815260040161093a90612cf2565b60405180910390fd5b600081600301600086815260200190815260200160002090508060000160009054906101000a900460ff168560405160200161097f9190612d8a565b604051602081830303815290604052906109cf576040517f08c379a00000000000000000000000000000000000000000000000000000000081526004016109c69190612e2f565b60405180910390fd5b508060000160019054906101000a900473ffffffffffffffffffffffffffffffffffffffff1693508060000160159054906101000a900460ff1660ff16925050509250929050565b60008060056000848152602001908152602001600020905060006002811115610a4357610a426123b1565b5b8160000160009054906101000a900460ff166002811115610a6757610a666123b1565b5b03610aa7576040517f08c379a0000000000000000000000000000000000000000000000000000000008152600401610a9e90612cf2565b60405180910390fd5b610ab381600101611c1d565b915050919050565b6060600060056000868152602001908152602001600020905060006002811115610ae857610ae76123b1565b5b8160000160009054906101000a900460ff166002811115610b0c57610b0b6123b1565b5b03610b4c576040517f08c379a0000000000000000000000000000000000000000000000000000000008152600401610b4390612cf2565b60405180910390fd5b6000610b5a82600101611c1d565b9050808411610b695783610b6b565b805b935083851115610bb0576040517f08c379a0000000000000000000000000000000000000000000000000000000008152600401610ba790612e9d565b60405180910390fd5b6000858503905060008167ffffffffffffffff811115610bd357610bd2612ebd565b5b604051908082528060200260200182016040528015610c015781602001602082028036833780820191505090505b50905060005b82811015610c5c57610c308189610c1e9190612f1b565b86600101611eb190919063ffffffff16565b828281518110610c4357610c42612f4f565b5b6020026020010181815250508080600101915050610c07565b50809450505050509392505050565b6000610c81826003611eb190919063ffffffff16565b9050919050565b6060610c946001611e79565b905090565b6060600060056000848152602001908152602001600020905060006002811115610cc657610cc56123b1565b5b8160000160009054906101000a900460ff166002811115610cea57610ce96123b1565b5b03610d2a576040517f08c379a0000000000000000000000000000000000000000000000000000000008152600401610d2190612cf2565b60405180910390fd5b610d3681600101611e79565b915050919050565b6060806060600060056000868152602001908152602001600020905060006002811115610d6e57610d6d6123b1565b5b8160000160009054906101000a900460ff166002811115610d9257610d916123b1565b5b03610dd2576040517f08c379a0000000000000000000000000000000000000000000000000000000008152600401610dc990612cf2565b60405180910390fd5b6000610de082600101611c1d565b9050610dee82600101611e79565b94508067ffffffffffffffff811115610e0a57610e09612ebd565b5b604051908082528060200260200182016040528015610e385781602001602082028036833780820191505090505b5093508067ffffffffffffffff811115610e5557610e54612ebd565b5b604051908082528060200260200182016040528015610e835781602001602082028036833780820191505090505b50925060005b8551811015610f79576000836003016000888481518110610ead57610eac612f4f565b5b6020026020010151815260200190815260200160002090508060000160019054906101000a900473ffffffffffffffffffffffffffffffffffffffff16868381518110610efd57610efc612f4f565b5b602002602001019073ffffffffffffffffffffffffffffffffffffffff16908173ffffffffffffffffffffffffffffffffffffffff16815250508060000160159054906101000a900460ff1660ff16858381518110610f5f57610f5e612f4f565b5b602002602001018181525050818060010192505050610e89565b5050509193909250565b60016000803373ffffffffffffffffffffffffffffffffffffffff1673ffffffffffffffffffffffffffffffffffffffff1681526020019081526020016000205414611004576040517f08c379a0000000000000000000000000000000000000000000000000000000008152600401610ffb90612c1a565b60405180910390fd5b60016000808373ffffffffffffffffffffffffffffffffffffffff1673ffffffffffffffffffffffffffffffffffffffff168152602001908152602001600020819055508073ffffffffffffffffffffffffffffffffffffffff167fdd0e34038ac38b2a1ce960229778ac48a8719bc900b6c4f8d0475c6e8b385a6060405160405180910390a250565b60016000803373ffffffffffffffffffffffffffffffffffffffff1673ffffffffffffffffffffffffffffffffffffffff168152602001908152602001600020541461110f576040517f08c379a000000000000000000000000000000000000000000000000000000000815260040161110690612c1a565b60405180910390fd5b60006005600083815260200190815260200160002090506001600281111561113a576111396123b1565b5b8160000160009054906101000a900460ff16600281111561115e5761115d6123b1565b5b1461119e576040517f08c379a000000000000000000000000000000000000000000000000000000000815260040161119590612c86565b60405180910390fd5b60028160000160006101000a81548160ff021916908360028111156111c6576111c56123b1565b5b0217905550817fba09d62fd2d30a61c2761628069a4a8dfa6089fb56f2b2b5fd63576812cf5e3060405160405180910390a25050565b60016000803373ffffffffffffffffffffffffffffffffffffffff1673ffffffffffffffffffffffffffffffffffffffff168152602001908152602001600020541461127d576040517f08c379a000000000000000000000000000000000000000000000000000000000815260040161127490612c1a565b60405180910390fd5b6000600560008381526020019081526020016000209050600060028111156112a8576112a76123b1565b5b8160000160009054906101000a900460ff1660028111156112cc576112cb6123b1565b5b0361130c576040517f08c379a000000000000000000000000000000000000000000000000000000000815260040161130390612cf2565b60405180910390fd5b600061131a82600101611c1d565b1461135a576040517f08c379a000000000000000000000000000000000000000000000000000000000815260040161135190612ff0565b60405180910390fd5b8060000160006101000a81549060ff02191690558060000160016101000a8154907effffffffffffffffffffffffffffffffffffffffffffffffffffffffffffff02191690556113b4826003611e9a90919063ffffffff16565b505050565b60016000803373ffffffffffffffffffffffffffffffffffffffff1673ffffffffffffffffffffffffffffffffffffffff168152602001908152602001600020541461143a576040517f08c379a000000000000000000000000000000000000000000000000000000000815260040161143190612c1a565b60405180910390fd5b60008060008373ffffffffffffffffffffffffffffffffffffffff1673ffffffffffffffffffffffffffffffffffffffff168152602001908152602001600020819055508073ffffffffffffffffffffffffffffffffffffffff167f184450df2e323acec0ed3b5c7531b81f9b4cdef7914dfd4c0a4317416bb5251b60405160405180910390a250565b60016000803373ffffffffffffffffffffffffffffffffffffffff1673ffffffffffffffffffffffffffffffffffffffff1681526020019081526020016000205414611545576040517f08c379a000000000000000000000000000000000000000000000000000000000815260040161153c90612c1a565b60405180910390fd5b611559816001611ec890919063ffffffff16565b15611599576040517f08c379a000000000000000000000000000000000000000000000000000000000815260040161159090613082565b60405180910390fd5b6115ad816001611c0690919063ffffffff16565b50807f70a73d328842241b7c45cb20fd99acd1332f2a97ac34dfbe2477d2595dd0f6cc60405160405180910390a250565b60016000803373ffffffffffffffffffffffffffffffffffffffff1673ffffffffffffffffffffffffffffffffffffffff168152602001908152602001600020541461165f576040517f08c379a000000000000000000000000000000000000000000000000000000000815260040161165690612c1a565b60405180910390fd5b60006005600086815260200190815260200160002090506001600281111561168a576116896123b1565b5b8160000160009054906101000a900460ff1660028111156116ae576116ad6123b1565b5b146116ee576040517f08c379a00000000000000000000000000000000000000000000000000000000081526004016116e590612c86565b60405180910390fd5b6116fa85858585611edf565b5050505050565b6000806002811115611716576117156123b1565b5b6005600084815260200190815260200160002060000160009054906101000a900460ff16600281111561174c5761174b6123b1565b5b14159050919050565b60006020528060005260406000206000915090505481565b600060056000848152602001908152602001600020600301600083815260200190815260200160002060000160009054906101000a900460ff16905092915050565b60006117c5826001611ec890919063ffffffff16565b9050919050565b60608060606000600560008881526020019081526020016000209050600060028111156117fc576117fb6123b1565b5b8160000160009054906101000a900460ff1660028111156118205761181f6123b1565b5b03611860576040517f08c379a000000000000000000000000000000000000000000000000000000000815260040161185790612cf2565b60405180910390fd5b600061186e82600101611c1d565b905080861161187d578561187f565b805b9550858711156118c4576040517f08c379a00000000000000000000000000000000000000000000000000000000081526004016118bb90612e9d565b60405180910390fd5b600087870390508067ffffffffffffffff8111156118e5576118e4612ebd565b5b6040519080825280602002602001820160405280156119135781602001602082028036833780820191505090505b5095508067ffffffffffffffff8111156119305761192f612ebd565b5b60405190808252806020026020018201604052801561195e5781602001602082028036833780820191505090505b5094508067ffffffffffffffff81111561197b5761197a612ebd565b5b6040519080825280602002602001820160405280156119a95781602001602082028036833780820191505090505b50935060005b81811015611ade576119d8818a6119c69190612f1b565b85600101611eb190919063ffffffff16565b8782815181106119eb576119ea612f4f565b5b6020026020010181815250506000846003016000898481518110611a1257611a11612f4f565b5b6020026020010151815260200190815260200160002090508060000160019054906101000a900473ffffffffffffffffffffffffffffffffffffffff16878381518110611a6257611a61612f4f565b5b602002602001019073ffffffffffffffffffffffffffffffffffffffff16908173ffffffffffffffffffffffffffffffffffffffff16815250508060000160159054906101000a900460ff1660ff16868381518110611ac457611ac3612f4f565b5b6020026020010181815250508180600101925050506119af565b5050505093509350939050565b60606000611af96003611c1d565b9050808311611b085782611b0a565b805b925082841115611b4f576040517f08c379a0000000000000000000000000000000000000000000000000000000008152600401611b4690612e9d565b60405180910390fd5b6000848403905060008167ffffffffffffffff811115611b7257611b71612ebd565b5b604051908082528060200260200182016040528015611ba05781602001602082028036833780820191505090505b50905060005b82811015611bf957611bcd8188611bbd9190612f1b565b6003611eb190919063ffffffff16565b828281518110611be057611bdf612f4f565b5b6020026020010181815250508080600101915050611ba6565b5080935050505092915050565b6000611c158360000183612105565b905092915050565b6000611c2b82600001612175565b9050919050565b600060056000838152602001908152602001600020905060006002811115611c5d57611c5c6123b1565b5b8160000160009054906101000a900460ff166002811115611c8157611c806123b1565b5b14611cc1576040517f08c379a0000000000000000000000000000000000000000000000000000000008152600401611cb8906130ee565b60405180910390fd5b611cd5826003611c0690919063ffffffff16565b5060018160000160006101000a81548160ff02191690836002811115611cfe57611cfd6123b1565b5b0217905550611d0d6003611c1d565b8160000160016101000a8154817effffffffffffffffffffffffffffffffffffffffffffffffffffffffffffff02191690837effffffffffffffffffffffffffffffffffffffffffffffffffffffffffffff160217905550817fcf69f68c68962239560d329d472bb52d7055ea1c8288005c8b63e7fb5065bfd160405160405180910390a25050565b8383905086869050148015611db057508181905086869050145b611def576040517f08c379a0000000000000000000000000000000000000000000000000000000008152600401611de690613180565b60405180910390fd5b60005b86869050811015611e6f57611e6288888884818110611e1457611e13612f4f565b5b90506020020135878785818110611e2e57611e2d612f4f565b5b9050602002016020810190611e439190612ab3565b868686818110611e5657611e55612f4f565b5b90506020020135611edf565b8080600101915050611df2565b5050505050505050565b60606000611e8983600001612186565b905060608190508092505050919050565b6000611ea983600001836121e2565b905092915050565b6000611ec083600001836122f6565b905092915050565b6000611ed78360000183612321565b905092915050565b611ef3836001611ec890919063ffffffff16565b611f32576040517f08c379a0000000000000000000000000000000000000000000000000000000008152600401611f2990613212565b60405180910390fd5b600073ffffffffffffffffffffffffffffffffffffffff168273ffffffffffffffffffffffffffffffffffffffff1603611fa1576040517f08c379a0000000000000000000000000000000000000000000000000000000008152600401611f98906132a4565b60405180910390fd5b60ff8016811115611fe7576040517f08c379a0000000000000000000000000000000000000000000000000000000008152600401611fde90613310565b60405180910390fd5b6000600560008681526020019081526020016000209050600081600301600086815260200190815260200160002090508060000160009054906101000a900460ff16612062576120438583600101611c0690919063ffffffff16565b5060018160000160006101000a81548160ff0219169083151502179055505b838160000160016101000a81548173ffffffffffffffffffffffffffffffffffffffff021916908373ffffffffffffffffffffffffffffffffffffffff160217905550828160000160156101000a81548160ff021916908360ff16021790555084867f0ecdeaedb3c6b93825217b7356e7eae51f1ad8a53576676edb601128d6c863b686866040516120f59291906127c0565b60405180910390a3505050505050565b60006121118383612321565b61216a57826000018290806001815401808255809150506001900390600052602060002001600090919091909150558260000180549050836001016000848152602001908152602001600020819055506001905061216f565b600090505b92915050565b600081600001805490509050919050565b6060816000018054806020026020016040519081016040528092919081815260200182805480156121d657602002820191906000526020600020905b8154815260200190600101908083116121c2575b50505050509050919050565b600080836001016000848152602001908152602001600020549050600081146122ea5760006001826122149190613330565b905060006001866000018054905061222c9190613330565b905081811461229b57600086600001828154811061224d5761224c612f4f565b5b906000526020600020015490508087600001848154811061227157612270612f4f565b5b90600052602060002001819055508387600101600083815260200190815260200160002081905550505b856000018054806122af576122ae613364565b5b6001900381819060005260206000200160009055905585600101600086815260200190815260200160002060009055600193505050506122f0565b60009150505b92915050565b600082600001828154811061230e5761230d612f4f565b5b9060005260206000200154905092915050565b600080836001016000848152602001908152602001600020541415905092915050565b600080fd5b600080fd5b6000819050919050565b6123618161234e565b811461236c57600080fd5b50565b60008135905061237e81612358565b92915050565b60006020828403121561239a57612399612344565b5b60006123a88482850161236f565b91505092915050565b7f4e487b7100000000000000000000000000000000000000000000000000000000600052602160045260246000fd5b600381106123f1576123f06123b1565b5b50565b6000819050612402826123e0565b919050565b6000612412826123f4565b9050919050565b61242281612407565b82525050565b6000819050919050565b61243b81612428565b82525050565b60006040820190506124566000830185612419565b6124636020830184612432565b9392505050565b600060208201905061247f6000830184612432565b92915050565b600080fd5b600080fd5b600080fd5b60008083601f8401126124aa576124a9612485565b5b8235905067ffffffffffffffff8111156124c7576124c661248a565b5b6020830191508360208202830111156124e3576124e261248f565b5b9250929050565b60008083601f840112612500576124ff612485565b5b8235905067ffffffffffffffff81111561251d5761251c61248a565b5b6020830191508360208202830111156125395761253861248f565b5b9250929050565b60008083601f84011261255657612555612485565b5b8235905067ffffffffffffffff8111156125735761257261248a565b5b60208301915083602082028301111561258f5761258e61248f565b5b9250929050565b60008060008060008060006080888a0312156125b5576125b4612344565b5b60006125c38a828b0161236f565b975050602088013567ffffffffffffffff8111156125e4576125e3612349565b5b6125f08a828b01612494565b9650965050604088013567ffffffffffffffff81111561261357612612612349565b5b61261f8a828b016124ea565b9450945050606088013567ffffffffffffffff81111561264257612641612349565b5b61264e8a828b01612540565b925092505092959891949750929550565b600081519050919050565b600082825260208201905092915050565b6000819050602082019050919050565b6126948161234e565b82525050565b60006126a6838361268b565b60208301905092915050565b6000602082019050919050565b60006126ca8261265f565b6126d4818561266a565b93506126df8361267b565b8060005b838110156127105781516126f7888261269a565b9750612702836126b2565b9250506001810190506126e3565b5085935050505092915050565b6000602082019050818103600083015261273781846126bf565b905092915050565b6000806040838503121561275657612755612344565b5b60006127648582860161236f565b92505060206127758582860161236f565b9150509250929050565b600073ffffffffffffffffffffffffffffffffffffffff82169050919050565b60006127aa8261277f565b9050919050565b6127ba8161279f565b82525050565b60006040820190506127d560008301856127b1565b6127e26020830184612432565b9392505050565b6127f281612428565b81146127fd57600080fd5b50565b60008135905061280f816127e9565b92915050565b60008060006060848603121561282e5761282d612344565b5b600061283c8682870161236f565b935050602061284d86828701612800565b925050604061285e86828701612800565b9150509250925092565b60006020828403121561287e5761287d612344565b5b600061288c84828501612800565b91505092915050565b61289e8161234e565b82525050565b60006020820190506128b96000830184612895565b92915050565b600081519050919050565b600082825260208201905092915050565b6000819050602082019050919050565b6128f48161279f565b82525050565b600061290683836128eb565b60208301905092915050565b6000602082019050919050565b600061292a826128bf565b61293481856128ca565b935061293f836128db565b8060005b8381101561297057815161295788826128fa565b975061296283612912565b925050600181019050612943565b5085935050505092915050565b600081519050919050565b600082825260208201905092915050565b6000819050602082019050919050565b6129b281612428565b82525050565b60006129c483836129a9565b60208301905092915050565b6000602082019050919050565b60006129e88261297d565b6129f28185612988565b93506129fd83612999565b8060005b83811015612a2e578151612a1588826129b8565b9750612a20836129d0565b925050600181019050612a01565b5085935050505092915050565b60006060820190508181036000830152612a5581866126bf565b90508181036020830152612a69818561291f565b90508181036040830152612a7d81846129dd565b9050949350505050565b612a908161279f565b8114612a9b57600080fd5b50565b600081359050612aad81612a87565b92915050565b600060208284031215612ac957612ac8612344565b5b6000612ad784828501612a9e565b91505092915050565b60008060008060808587031215612afa57612af9612344565b5b6000612b088782880161236f565b9450506020612b198782880161236f565b9350506040612b2a87828801612a9e565b9250506060612b3b87828801612800565b91505092959194509250565b60008115159050919050565b612b5c81612b47565b82525050565b6000602082019050612b776000830184612b53565b92915050565b60008060408385031215612b9457612b93612344565b5b6000612ba285828601612800565b9250506020612bb385828601612800565b9150509250929050565b600082825260208201905092915050565b7f52776152656769737472792f6e6f742d617574686f72697a6564000000000000600082015250565b6000612c04601a83612bbd565b9150612c0f82612bce565b602082019050919050565b60006020820190508181036000830152612c3381612bf7565b9050919050565b7f52776152656769737472792f6465616c2d6e6f742d6163746976650000000000600082015250565b6000612c70601b83612bbd565b9150612c7b82612c3a565b602082019050919050565b60006020820190508181036000830152612c9f81612c63565b9050919050565b7f52776152656769737472792f696e76616c69642d6465616c0000000000000000600082015250565b6000612cdc601883612bbd565b9150612ce782612ca6565b602082019050919050565b60006020820190508181036000830152612d0b81612ccf565b9050919050565b600081905092915050565b7f52776152656769737472792f696e76616c69642d636f6d706f6e656e742d0000600082015250565b6000612d53601e83612d12565b9150612d5e82612d1d565b601e82019050919050565b6000819050919050565b612d84612d7f8261234e565b612d69565b82525050565b6000612d9582612d46565b9150612da18284612d73565b60208201915081905092915050565b600081519050919050565b60005b83811015612dd9578082015181840152602081019050612dbe565b60008484015250505050565b6000601f19601f8301169050919050565b6000612e0182612db0565b612e0b8185612bbd565b9350612e1b818560208601612dbb565b612e2481612de5565b840191505092915050565b60006020820190508181036000830152612e498184612df6565b905092915050565b7f52776152656769737472792f696e76616c69642d697465726174696f6e000000600082015250565b6000612e87601d83612bbd565b9150612e9282612e51565b602082019050919050565b60006020820190508181036000830152612eb681612e7a565b9050919050565b7f4e487b7100000000000000000000000000000000000000000000000000000000600052604160045260246000fd5b7f4e487b7100000000000000000000000000000000000000000000000000000000600052601160045260246000fd5b6000612f2682612428565b9150612f3183612428565b9250828201905080821115612f4957612f48612eec565b5b92915050565b7f4e487b7100000000000000000000000000000000000000000000000000000000600052603260045260246000fd5b7f52776152656769737472792f6465616c2d64616e676c696e672d636f6d706f6e60008201527f656e747300000000000000000000000000000000000000000000000000000000602082015250565b6000612fda602483612bbd565b9150612fe582612f7e565b604082019050919050565b6000602082019050818103600083015261300981612fcd565b9050919050565b7f52776152656769737472792f636f6d706f6e656e742d616c72656164792d737560008201527f70706f7274656400000000000000000000000000000000000000000000000000602082015250565b600061306c602783612bbd565b915061307782613010565b604082019050919050565b6000602082019050818103600083015261309b8161305f565b9050919050565b7f52776152656769737472792f6465616c2d616c72656164792d65786973747300600082015250565b60006130d8601f83612bbd565b91506130e3826130a2565b602082019050919050565b60006020820190508181036000830152613107816130cb565b9050919050565b7f52776152656769737472792f6d69736d61746368696e672d636f6d706f6e656e60008201527f742d706172616d73000000000000000000000000000000000000000000000000602082015250565b600061316a602883612bbd565b91506131758261310e565b604082019050919050565b600060208201905081810360008301526131998161315d565b9050919050565b7f52776152656769737472792f756e737570706f727465642d636f6d706f6e656e60008201527f7400000000000000000000000000000000000000000000000000000000000000602082015250565b60006131fc602183612bbd565b9150613207826131a0565b604082019050919050565b6000602082019050818103600083015261322b816131ef565b9050919050565b7f52776152656769737472792f696e76616c69642d636f6d706f6e656e742d616460008201527f6472000000000000000000000000000000000000000000000000000000000000602082015250565b600061328e602283612bbd565b915061329982613232565b604082019050919050565b600060208201905081810360008301526132bd81613281565b9050919050565b7f52776152656769737472792f696e76616c69642d76617269616e740000000000600082015250565b60006132fa601b83612bbd565b9150613305826132c4565b602082019050919050565b60006020820190508181036000830152613329816132ed565b9050919050565b600061333b82612428565b915061334683612428565b925082820390508181111561335e5761335d612eec565b5b92915050565b7f4e487b7100000000000000000000000000000000000000000000000000000000600052603160045260246000fdfea26469706673582212206f4c2fbde388587b3645fd17e2f998a9f59984a759595e1d877bb3232050d9b864736f6c63430008120033",
        "nonce": "0x11",
        "accessList": []
      },
      "additionalContracts": []
    },
    {
      "hash": "0xdebac77692542db315a127a14b68630820be3b23e37fd57b55d34b792c83e180",
      "transactionType": "CALL",
      "contractName": "RwaRegistry",
      "contractAddress": "0xaC8a4758B568EC09FD52F9Ec6Ff7Bc0383e710AD",
      "function": "add(bytes32,bytes32[],address[],uint256[])",
      "arguments": [
        "0x5257413030310000000000000000000000000000000000000000000000000000",
        "[0x75726e0000000000000000000000000000000000000000000000000000000000, 0x6f7574707574436f6e6475697400000000000000000000000000000000000000, 0x696e707574436f6e647569740000000000000000000000000000000000000000, 0x6c69717569646174696f6e4f7261636c65000000000000000000000000000000]",
        "[0xa3342059BcDcFA57a13b12a35eD4BBE59B873005, 0xb3eFb912e1cbC0B26FC17388Dd433Cecd2206C3d, 0x486C85e2bb9801d14f6A8fdb78F5108a0fd932f2, 0x88f88Bb9E66241B73B84f3A6E197FbBa487b1E30]",
        "[1, 1, 1, 1]"
      ],
      "rpc": "http://localhost:8546",
      "transaction": {
        "type": "0x02",
        "from": "0xf1fdf86e249535cdea1cd2baead3c9b234d75d2a",
        "to": "0xac8a4758b568ec09fd52f9ec6ff7bc0383e710ad",
        "gas": "0x92f8e",
        "value": "0x0",
        "data": "0x0e14edc152574130303100000000000000000000000000000000000000000000000000000000000000000000000000000000000000000000000000000000000000000080000000000000000000000000000000000000000000000000000000000000012000000000000000000000000000000000000000000000000000000000000001c0000000000000000000000000000000000000000000000000000000000000000475726e00000000000000000000000000000000000000000000000000000000006f7574707574436f6e6475697400000000000000000000000000000000000000696e707574436f6e6475697400000000000000000000000000000000000000006c69717569646174696f6e4f7261636c650000000000000000000000000000000000000000000000000000000000000000000000000000000000000000000004000000000000000000000000a3342059bcdcfa57a13b12a35ed4bbe59b873005000000000000000000000000b3efb912e1cbc0b26fc17388dd433cecd2206c3d000000000000000000000000486c85e2bb9801d14f6a8fdb78f5108a0fd932f200000000000000000000000088f88bb9e66241b73b84f3a6e197fbba487b1e3000000000000000000000000000000000000000000000000000000000000000040000000000000000000000000000000000000000000000000000000000000001000000000000000000000000000000000000000000000000000000000000000100000000000000000000000000000000000000000000000000000000000000010000000000000000000000000000000000000000000000000000000000000001",
        "nonce": "0x12",
        "accessList": []
      },
      "additionalContracts": []
    },
    {
      "hash": "0x4276d6a51432cc9aea02f64c3cce9e5594bf4396eff5459579a1cf0799054ee3",
      "transactionType": "CALL",
      "contractName": "RwaRegistry",
      "contractAddress": "0xaC8a4758B568EC09FD52F9Ec6Ff7Bc0383e710AD",
      "function": "add(bytes32,bytes32[],address[],uint256[])",
      "arguments": [
        "0x5257413030320000000000000000000000000000000000000000000000000000",
        "[0x75726e0000000000000000000000000000000000000000000000000000000000, 0x6f7574707574436f6e6475697400000000000000000000000000000000000000, 0x696e707574436f6e647569740000000000000000000000000000000000000000, 0x6c69717569646174696f6e4f7261636c65000000000000000000000000000000]",
        "[0x225B3da5BE762Ee52B182157E67BeA0b31968163, 0x2474F297214E5d96Ba4C81986A9F0e5C260f445D, 0x2474F297214E5d96Ba4C81986A9F0e5C260f445D, 0x88f88Bb9E66241B73B84f3A6E197FbBa487b1E30]",
        "[1, 254, 254, 1]"
      ],
      "rpc": "http://localhost:8546",
      "transaction": {
        "type": "0x02",
        "from": "0xf1fdf86e249535cdea1cd2baead3c9b234d75d2a",
        "to": "0xac8a4758b568ec09fd52f9ec6ff7bc0383e710ad",
        "gas": "0x95832",
        "value": "0x0",
        "data": "0x0e14edc152574130303200000000000000000000000000000000000000000000000000000000000000000000000000000000000000000000000000000000000000000080000000000000000000000000000000000000000000000000000000000000012000000000000000000000000000000000000000000000000000000000000001c0000000000000000000000000000000000000000000000000000000000000000475726e00000000000000000000000000000000000000000000000000000000006f7574707574436f6e6475697400000000000000000000000000000000000000696e707574436f6e6475697400000000000000000000000000000000000000006c69717569646174696f6e4f7261636c650000000000000000000000000000000000000000000000000000000000000000000000000000000000000000000004000000000000000000000000225b3da5be762ee52b182157e67bea0b319681630000000000000000000000002474f297214e5d96ba4c81986a9f0e5c260f445d0000000000000000000000002474f297214e5d96ba4c81986a9f0e5c260f445d00000000000000000000000088f88bb9e66241b73b84f3a6e197fbba487b1e300000000000000000000000000000000000000000000000000000000000000004000000000000000000000000000000000000000000000000000000000000000100000000000000000000000000000000000000000000000000000000000000fe00000000000000000000000000000000000000000000000000000000000000fe0000000000000000000000000000000000000000000000000000000000000001",
        "nonce": "0x13",
        "accessList": []
      },
      "additionalContracts": []
    },
    {
      "hash": "0xaecae109177c346834e1522195d18ae348668a5a926f1a4a76c552275b031d46",
      "transactionType": "CALL",
      "contractName": "RwaRegistry",
      "contractAddress": "0xaC8a4758B568EC09FD52F9Ec6Ff7Bc0383e710AD",
      "function": "add(bytes32,bytes32[],address[],uint256[])",
      "arguments": [
        "0x5257413030330000000000000000000000000000000000000000000000000000",
        "[0x75726e0000000000000000000000000000000000000000000000000000000000, 0x6f7574707574436f6e6475697400000000000000000000000000000000000000, 0x696e707574436f6e647569740000000000000000000000000000000000000000, 0x6c69717569646174696f6e4f7261636c65000000000000000000000000000000]",
        "[0x7bF825718e7C388c3be16CFe9982539A7455540F, 0x2A9798c6F165B6D60Cfb923Fe5BFD6f338695D9B, 0x2A9798c6F165B6D60Cfb923Fe5BFD6f338695D9B, 0x88f88Bb9E66241B73B84f3A6E197FbBa487b1E30]",
        "[1, 254, 254, 1]"
      ],
      "rpc": "http://localhost:8546",
      "transaction": {
        "type": "0x02",
        "from": "0xf1fdf86e249535cdea1cd2baead3c9b234d75d2a",
        "to": "0xac8a4758b568ec09fd52f9ec6ff7bc0383e710ad",
        "gas": "0x95832",
        "value": "0x0",
        "data": "0x0e14edc152574130303300000000000000000000000000000000000000000000000000000000000000000000000000000000000000000000000000000000000000000080000000000000000000000000000000000000000000000000000000000000012000000000000000000000000000000000000000000000000000000000000001c0000000000000000000000000000000000000000000000000000000000000000475726e00000000000000000000000000000000000000000000000000000000006f7574707574436f6e6475697400000000000000000000000000000000000000696e707574436f6e6475697400000000000000000000000000000000000000006c69717569646174696f6e4f7261636c6500000000000000000000000000000000000000000000000000000000000000000000000000000000000000000000040000000000000000000000007bf825718e7c388c3be16cfe9982539a7455540f0000000000000000000000002a9798c6f165b6d60cfb923fe5bfd6f338695d9b0000000000000000000000002a9798c6f165b6d60cfb923fe5bfd6f338695d9b00000000000000000000000088f88bb9e66241b73b84f3a6e197fbba487b1e300000000000000000000000000000000000000000000000000000000000000004000000000000000000000000000000000000000000000000000000000000000100000000000000000000000000000000000000000000000000000000000000fe00000000000000000000000000000000000000000000000000000000000000fe0000000000000000000000000000000000000000000000000000000000000001",
        "nonce": "0x14",
        "accessList": []
      },
      "additionalContracts": []
    },
    {
      "hash": "0x1a84c0416eb2960c5fc3c680f669792ae72949a9f7ea5a814a8e3ac6fa84f8b1",
      "transactionType": "CALL",
      "contractName": "RwaRegistry",
      "contractAddress": "0xaC8a4758B568EC09FD52F9Ec6Ff7Bc0383e710AD",
      "function": "add(bytes32,bytes32[],address[],uint256[])",
      "arguments": [
        "0x5257413030340000000000000000000000000000000000000000000000000000",
        "[0x75726e0000000000000000000000000000000000000000000000000000000000, 0x6f7574707574436f6e6475697400000000000000000000000000000000000000, 0x696e707574436f6e647569740000000000000000000000000000000000000000, 0x6c69717569646174696f6e4f7261636c65000000000000000000000000000000]",
        "[0xeF1699548717aa4Cf47aD738316280b56814C821, 0xe1ed3F588A98bF8a3744f4BF74Fd8540e81AdE3f, 0xe1ed3F588A98bF8a3744f4BF74Fd8540e81AdE3f, 0x88f88Bb9E66241B73B84f3A6E197FbBa487b1E30]",
        "[1, 254, 254, 1]"
      ],
      "rpc": "http://localhost:8546",
      "transaction": {
        "type": "0x02",
        "from": "0xf1fdf86e249535cdea1cd2baead3c9b234d75d2a",
        "to": "0xac8a4758b568ec09fd52f9ec6ff7bc0383e710ad",
        "gas": "0x95832",
        "value": "0x0",
        "data": "0x0e14edc152574130303400000000000000000000000000000000000000000000000000000000000000000000000000000000000000000000000000000000000000000080000000000000000000000000000000000000000000000000000000000000012000000000000000000000000000000000000000000000000000000000000001c0000000000000000000000000000000000000000000000000000000000000000475726e00000000000000000000000000000000000000000000000000000000006f7574707574436f6e6475697400000000000000000000000000000000000000696e707574436f6e6475697400000000000000000000000000000000000000006c69717569646174696f6e4f7261636c650000000000000000000000000000000000000000000000000000000000000000000000000000000000000000000004000000000000000000000000ef1699548717aa4cf47ad738316280b56814c821000000000000000000000000e1ed3f588a98bf8a3744f4bf74fd8540e81ade3f000000000000000000000000e1ed3f588a98bf8a3744f4bf74fd8540e81ade3f00000000000000000000000088f88bb9e66241b73b84f3a6e197fbba487b1e300000000000000000000000000000000000000000000000000000000000000004000000000000000000000000000000000000000000000000000000000000000100000000000000000000000000000000000000000000000000000000000000fe00000000000000000000000000000000000000000000000000000000000000fe0000000000000000000000000000000000000000000000000000000000000001",
        "nonce": "0x15",
        "accessList": []
      },
      "additionalContracts": []
    },
    {
      "hash": "0x9cf9155afa9c21159e3c5dd5f15208c00692c99e6ee3662782e1ab41afdc2404",
      "transactionType": "CALL",
      "contractName": "RwaRegistry",
      "contractAddress": "0xaC8a4758B568EC09FD52F9Ec6Ff7Bc0383e710AD",
      "function": "add(bytes32,bytes32[],address[],uint256[])",
      "arguments": [
        "0x5257413030350000000000000000000000000000000000000000000000000000",
        "[0x75726e0000000000000000000000000000000000000000000000000000000000, 0x6f7574707574436f6e6475697400000000000000000000000000000000000000, 0x696e707574436f6e647569740000000000000000000000000000000000000000, 0x6c69717569646174696f6e4f7261636c65000000000000000000000000000000]",
        "[0xc40907545C57dB30F01a1c2acB242C7c7ACB2B90, 0x5b702e1fEF3F556cbe219eE697D7f170A236cc66, 0x5b702e1fEF3F556cbe219eE697D7f170A236cc66, 0x88f88Bb9E66241B73B84f3A6E197FbBa487b1E30]",
        "[1, 254, 254, 1]"
      ],
      "rpc": "http://localhost:8546",
      "transaction": {
        "type": "0x02",
        "from": "0xf1fdf86e249535cdea1cd2baead3c9b234d75d2a",
        "to": "0xac8a4758b568ec09fd52f9ec6ff7bc0383e710ad",
        "gas": "0x95832",
        "value": "0x0",
        "data": "0x0e14edc152574130303500000000000000000000000000000000000000000000000000000000000000000000000000000000000000000000000000000000000000000080000000000000000000000000000000000000000000000000000000000000012000000000000000000000000000000000000000000000000000000000000001c0000000000000000000000000000000000000000000000000000000000000000475726e00000000000000000000000000000000000000000000000000000000006f7574707574436f6e6475697400000000000000000000000000000000000000696e707574436f6e6475697400000000000000000000000000000000000000006c69717569646174696f6e4f7261636c650000000000000000000000000000000000000000000000000000000000000000000000000000000000000000000004000000000000000000000000c40907545c57db30f01a1c2acb242c7c7acb2b900000000000000000000000005b702e1fef3f556cbe219ee697d7f170a236cc660000000000000000000000005b702e1fef3f556cbe219ee697d7f170a236cc6600000000000000000000000088f88bb9e66241b73b84f3a6e197fbba487b1e300000000000000000000000000000000000000000000000000000000000000004000000000000000000000000000000000000000000000000000000000000000100000000000000000000000000000000000000000000000000000000000000fe00000000000000000000000000000000000000000000000000000000000000fe0000000000000000000000000000000000000000000000000000000000000001",
        "nonce": "0x16",
        "accessList": []
      },
      "additionalContracts": []
    },
    {
      "hash": "0x6f21f4570bd2aee10d98bf2d503f10e49ef1f867c9065ad6f01900cadcad4ba7",
      "transactionType": "CALL",
      "contractName": "RwaRegistry",
      "contractAddress": "0xaC8a4758B568EC09FD52F9Ec6Ff7Bc0383e710AD",
      "function": "add(bytes32,bytes32[],address[],uint256[])",
      "arguments": [
        "0x5257413030360000000000000000000000000000000000000000000000000000",
        "[0x75726e0000000000000000000000000000000000000000000000000000000000, 0x6f7574707574436f6e6475697400000000000000000000000000000000000000, 0x696e707574436f6e647569740000000000000000000000000000000000000000, 0x6c69717569646174696f6e4f7261636c65000000000000000000000000000000]",
        "[0x0C185bf5388DdfDB288F4D875265d456D18FD9Cb, 0x8Fe38D1E4293181273E2e323e4c16e0D1d4861e3, 0x8Fe38D1E4293181273E2e323e4c16e0D1d4861e3, 0x88f88Bb9E66241B73B84f3A6E197FbBa487b1E30]",
        "[1, 254, 254, 1]"
      ],
      "rpc": "http://localhost:8546",
      "transaction": {
        "type": "0x02",
        "from": "0xf1fdf86e249535cdea1cd2baead3c9b234d75d2a",
        "to": "0xac8a4758b568ec09fd52f9ec6ff7bc0383e710ad",
        "gas": "0x95832",
        "value": "0x0",
        "data": "0x0e14edc152574130303600000000000000000000000000000000000000000000000000000000000000000000000000000000000000000000000000000000000000000080000000000000000000000000000000000000000000000000000000000000012000000000000000000000000000000000000000000000000000000000000001c0000000000000000000000000000000000000000000000000000000000000000475726e00000000000000000000000000000000000000000000000000000000006f7574707574436f6e6475697400000000000000000000000000000000000000696e707574436f6e6475697400000000000000000000000000000000000000006c69717569646174696f6e4f7261636c6500000000000000000000000000000000000000000000000000000000000000000000000000000000000000000000040000000000000000000000000c185bf5388ddfdb288f4d875265d456d18fd9cb0000000000000000000000008fe38d1e4293181273e2e323e4c16e0d1d4861e30000000000000000000000008fe38d1e4293181273e2e323e4c16e0d1d4861e300000000000000000000000088f88bb9e66241b73b84f3a6e197fbba487b1e300000000000000000000000000000000000000000000000000000000000000004000000000000000000000000000000000000000000000000000000000000000100000000000000000000000000000000000000000000000000000000000000fe00000000000000000000000000000000000000000000000000000000000000fe0000000000000000000000000000000000000000000000000000000000000001",
        "nonce": "0x17",
        "accessList": []
      },
      "additionalContracts": []
    },
    {
      "hash": "0xa4735d118da8dc53ac14c510567a126e5b1ba01d8a05893fa599fbe874706137",
      "transactionType": "CALL",
      "contractName": "RwaRegistry",
      "contractAddress": "0xaC8a4758B568EC09FD52F9Ec6Ff7Bc0383e710AD",
      "function": "add(bytes32,bytes32[],address[],uint256[])",
      "arguments": [
        "0x5257413030370000000000000000000000000000000000000000000000000000",
        "[0x75726e0000000000000000000000000000000000000000000000000000000000, 0x6a61720000000000000000000000000000000000000000000000000000000000, 0x6a6172496e707574436f6e647569740000000000000000000000000000000000, 0x6f7574707574436f6e6475697400000000000000000000000000000000000000, 0x696e707574436f6e647569740000000000000000000000000000000000000000, 0x6c69717569646174696f6e4f7261636c65000000000000000000000000000000]",
        "[0x481bA2d2e86a1c41427893899B5B0cEae41c6726, 0xef1B095F700BE471981aae025f92B03091c3AD47, 0xc8bb4e2B249703640e89265e2Ae7c9D5eA2aF742, 0x701C3a384c613157bf473152844f368F2d6EF191, 0x58f5e979eF74b60a9e5F955553ab8e0e65ba89c9, 0x88f88Bb9E66241B73B84f3A6E197FbBa487b1E30]",
        "[2, 1, 3, 3, 3, 1]"
      ],
      "rpc": "http://localhost:8546",
      "transaction": {
        "type": "0x02",
        "from": "0xf1fdf86e249535cdea1cd2baead3c9b234d75d2a",
        "to": "0xac8a4758b568ec09fd52f9ec6ff7bc0383e710ad",
        "gas": "0xbf465",
        "value": "0x0",
        "data": "0x0e14edc15257413030370000000000000000000000000000000000000000000000000000000000000000000000000000000000000000000000000000000000000000008000000000000000000000000000000000000000000000000000000000000001600000000000000000000000000000000000000000000000000000000000000240000000000000000000000000000000000000000000000000000000000000000675726e00000000000000000000000000000000000000000000000000000000006a617200000000000000000000000000000000000000000000000000000000006a6172496e707574436f6e6475697400000000000000000000000000000000006f7574707574436f6e6475697400000000000000000000000000000000000000696e707574436f6e6475697400000000000000000000000000000000000000006c69717569646174696f6e4f7261636c650000000000000000000000000000000000000000000000000000000000000000000000000000000000000000000006000000000000000000000000481ba2d2e86a1c41427893899b5b0ceae41c6726000000000000000000000000ef1b095f700be471981aae025f92b03091c3ad47000000000000000000000000c8bb4e2b249703640e89265e2ae7c9d5ea2af742000000000000000000000000701c3a384c613157bf473152844f368f2d6ef19100000000000000000000000058f5e979ef74b60a9e5f955553ab8e0e65ba89c900000000000000000000000088f88bb9e66241b73b84f3a6e197fbba487b1e300000000000000000000000000000000000000000000000000000000000000006000000000000000000000000000000000000000000000000000000000000000200000000000000000000000000000000000000000000000000000000000000010000000000000000000000000000000000000000000000000000000000000003000000000000000000000000000000000000000000000000000000000000000300000000000000000000000000000000000000000000000000000000000000030000000000000000000000000000000000000000000000000000000000000001",
        "nonce": "0x18",
        "accessList": []
      },
      "additionalContracts": []
    },
    {
      "hash": "0xc464530bfa15bdad1e7ace8bfbcb27803e17d786d44bdffd495bf0d5a49c4801",
      "transactionType": "CALL",
      "contractName": "RwaRegistry",
      "contractAddress": "0xaC8a4758B568EC09FD52F9Ec6Ff7Bc0383e710AD",
      "function": "add(bytes32,bytes32[],address[],uint256[])",
      "arguments": [
        "0x5257413030380000000000000000000000000000000000000000000000000000",
        "[0x75726e0000000000000000000000000000000000000000000000000000000000, 0x6f7574707574436f6e6475697400000000000000000000000000000000000000, 0x696e707574436f6e647569740000000000000000000000000000000000000000, 0x6c69717569646174696f6e4f7261636c65000000000000000000000000000000]",
        "[0x495215cabc630830071F80263a908E8826a66121, 0x21CF5Ad1311788D762f9035829f81B9f54610F0C, 0xa397a23dDA051186F202C67148c90683c413383C, 0x88f88Bb9E66241B73B84f3A6E197FbBa487b1E30]",
        "[2, 2, 2, 1]"
      ],
      "rpc": "http://localhost:8546",
      "transaction": {
        "type": "0x02",
        "from": "0xf1fdf86e249535cdea1cd2baead3c9b234d75d2a",
        "to": "0xac8a4758b568ec09fd52f9ec6ff7bc0383e710ad",
        "gas": "0x95832",
        "value": "0x0",
        "data": "0x0e14edc152574130303800000000000000000000000000000000000000000000000000000000000000000000000000000000000000000000000000000000000000000080000000000000000000000000000000000000000000000000000000000000012000000000000000000000000000000000000000000000000000000000000001c0000000000000000000000000000000000000000000000000000000000000000475726e00000000000000000000000000000000000000000000000000000000006f7574707574436f6e6475697400000000000000000000000000000000000000696e707574436f6e6475697400000000000000000000000000000000000000006c69717569646174696f6e4f7261636c650000000000000000000000000000000000000000000000000000000000000000000000000000000000000000000004000000000000000000000000495215cabc630830071f80263a908e8826a6612100000000000000000000000021cf5ad1311788d762f9035829f81b9f54610f0c000000000000000000000000a397a23dda051186f202c67148c90683c413383c00000000000000000000000088f88bb9e66241b73b84f3a6e197fbba487b1e3000000000000000000000000000000000000000000000000000000000000000040000000000000000000000000000000000000000000000000000000000000002000000000000000000000000000000000000000000000000000000000000000200000000000000000000000000000000000000000000000000000000000000020000000000000000000000000000000000000000000000000000000000000001",
        "nonce": "0x19",
        "accessList": []
      },
      "additionalContracts": []
    },
    {
      "hash": "0x68c7e180a2c94f6e3e28f065be8f463c331eaf35bfe907b2567a2ea0fa39c3e9",
      "transactionType": "CALL",
      "contractName": "RwaRegistry",
      "contractAddress": "0xaC8a4758B568EC09FD52F9Ec6Ff7Bc0383e710AD",
      "function": "add(bytes32,bytes32[],address[],uint256[])",
      "arguments": [
        "0x5257413030390000000000000000000000000000000000000000000000000000",
        "[0x75726e0000000000000000000000000000000000000000000000000000000000, 0x6a61720000000000000000000000000000000000000000000000000000000000, 0x6f7574707574436f6e6475697400000000000000000000000000000000000000, 0x6c69717569646174696f6e4f7261636c65000000000000000000000000000000]",
        "[0x1818EE501cd28e01E058E7C283E178E9e04a1e79, 0x6C6d4Be2223B5d202263515351034861dD9aFdb6, 0x508D982e13263Fc8e1b5A4E6bf59b335202e36b4, 0x88f88Bb9E66241B73B84f3A6E197FbBa487b1E30]",
        "[2, 1, 255, 1]"
      ],
      "rpc": "http://localhost:8546",
      "transaction": {
        "type": "0x02",
        "from": "0xf1fdf86e249535cdea1cd2baead3c9b234d75d2a",
        "to": "0xac8a4758b568ec09fd52f9ec6ff7bc0383e710ad",
        "gas": "0x8d2b6",
        "value": "0x0",
        "data": "0x0e14edc152574130303900000000000000000000000000000000000000000000000000000000000000000000000000000000000000000000000000000000000000000080000000000000000000000000000000000000000000000000000000000000012000000000000000000000000000000000000000000000000000000000000001c0000000000000000000000000000000000000000000000000000000000000000475726e00000000000000000000000000000000000000000000000000000000006a617200000000000000000000000000000000000000000000000000000000006f7574707574436f6e64756974000000000000000000000000000000000000006c69717569646174696f6e4f7261636c6500000000000000000000000000000000000000000000000000000000000000000000000000000000000000000000040000000000000000000000001818ee501cd28e01e058e7c283e178e9e04a1e790000000000000000000000006c6d4be2223b5d202263515351034861dd9afdb6000000000000000000000000508d982e13263fc8e1b5a4e6bf59b335202e36b400000000000000000000000088f88bb9e66241b73b84f3a6e197fbba487b1e3000000000000000000000000000000000000000000000000000000000000000040000000000000000000000000000000000000000000000000000000000000002000000000000000000000000000000000000000000000000000000000000000100000000000000000000000000000000000000000000000000000000000000ff0000000000000000000000000000000000000000000000000000000000000001",
        "nonce": "0x1a",
        "accessList": []
      },
      "additionalContracts": []
    },
    {
      "hash": "0xa6f533c20b085d0e576df34842166d845c28574a7802e1a461f6feb254607596",
      "transactionType": "CALL",
      "contractName": "RwaRegistry",
      "contractAddress": "0xaC8a4758B568EC09FD52F9Ec6Ff7Bc0383e710AD",
      "function": "add(bytes32,bytes32[],address[],uint256[])",
      "arguments": [
        "0x5257413031300000000000000000000000000000000000000000000000000000",
        "[0x75726e0000000000000000000000000000000000000000000000000000000000, 0x6f7574707574436f6e6475697400000000000000000000000000000000000000, 0x696e707574436f6e647569740000000000000000000000000000000000000000, 0x6c69717569646174696f6e4f7261636c65000000000000000000000000000000]",
        "[0x4866d5d24CdC6cc094423717663b2D3343d4EFF9, 0x1F5C294EF3Ff2d2Da30ea9EDAd490C28096C91dF, 0x1F5C294EF3Ff2d2Da30ea9EDAd490C28096C91dF, 0x88f88Bb9E66241B73B84f3A6E197FbBa487b1E30]",
        "[1, 254, 254, 1]"
      ],
      "rpc": "http://localhost:8546",
      "transaction": {
        "type": "0x02",
        "from": "0xf1fdf86e249535cdea1cd2baead3c9b234d75d2a",
        "to": "0xac8a4758b568ec09fd52f9ec6ff7bc0383e710ad",
        "gas": "0x95832",
        "value": "0x0",
        "data": "0x0e14edc152574130313000000000000000000000000000000000000000000000000000000000000000000000000000000000000000000000000000000000000000000080000000000000000000000000000000000000000000000000000000000000012000000000000000000000000000000000000000000000000000000000000001c0000000000000000000000000000000000000000000000000000000000000000475726e00000000000000000000000000000000000000000000000000000000006f7574707574436f6e6475697400000000000000000000000000000000000000696e707574436f6e6475697400000000000000000000000000000000000000006c69717569646174696f6e4f7261636c6500000000000000000000000000000000000000000000000000000000000000000000000000000000000000000000040000000000000000000000004866d5d24cdc6cc094423717663b2d3343d4eff90000000000000000000000001f5c294ef3ff2d2da30ea9edad490c28096c91df0000000000000000000000001f5c294ef3ff2d2da30ea9edad490c28096c91df00000000000000000000000088f88bb9e66241b73b84f3a6e197fbba487b1e300000000000000000000000000000000000000000000000000000000000000004000000000000000000000000000000000000000000000000000000000000000100000000000000000000000000000000000000000000000000000000000000fe00000000000000000000000000000000000000000000000000000000000000fe0000000000000000000000000000000000000000000000000000000000000001",
        "nonce": "0x1b",
        "accessList": []
      },
      "additionalContracts": []
    },
    {
      "hash": "0x619752f23b67be6310722dcf85ccb5dd51723d746408ed6d39bd8f40bc033d36",
      "transactionType": "CALL",
      "contractName": "RwaRegistry",
      "contractAddress": "0xaC8a4758B568EC09FD52F9Ec6Ff7Bc0383e710AD",
      "function": "add(bytes32,bytes32[],address[],uint256[])",
      "arguments": [
        "0x5257413031310000000000000000000000000000000000000000000000000000",
        "[0x75726e0000000000000000000000000000000000000000000000000000000000, 0x6f7574707574436f6e6475697400000000000000000000000000000000000000, 0x696e707574436f6e647569740000000000000000000000000000000000000000, 0x6c69717569646174696f6e4f7261636c65000000000000000000000000000000]",
        "[0x32C9bBA0841F2557C10d3f0d30092f138251aFE6, 0x8e74e529049bB135CF72276C1845f5bD779749b0, 0x8e74e529049bB135CF72276C1845f5bD779749b0, 0x88f88Bb9E66241B73B84f3A6E197FbBa487b1E30]",
        "[1, 254, 254, 1]"
      ],
      "rpc": "http://localhost:8546",
      "transaction": {
        "type": "0x02",
        "from": "0xf1fdf86e249535cdea1cd2baead3c9b234d75d2a",
        "to": "0xac8a4758b568ec09fd52f9ec6ff7bc0383e710ad",
        "gas": "0x95832",
        "value": "0x0",
        "data": "0x0e14edc152574130313100000000000000000000000000000000000000000000000000000000000000000000000000000000000000000000000000000000000000000080000000000000000000000000000000000000000000000000000000000000012000000000000000000000000000000000000000000000000000000000000001c0000000000000000000000000000000000000000000000000000000000000000475726e00000000000000000000000000000000000000000000000000000000006f7574707574436f6e6475697400000000000000000000000000000000000000696e707574436f6e6475697400000000000000000000000000000000000000006c69717569646174696f6e4f7261636c65000000000000000000000000000000000000000000000000000000000000000000000000000000000000000000000400000000000000000000000032c9bba0841f2557c10d3f0d30092f138251afe60000000000000000000000008e74e529049bb135cf72276c1845f5bd779749b00000000000000000000000008e74e529049bb135cf72276c1845f5bd779749b000000000000000000000000088f88bb9e66241b73b84f3a6e197fbba487b1e300000000000000000000000000000000000000000000000000000000000000004000000000000000000000000000000000000000000000000000000000000000100000000000000000000000000000000000000000000000000000000000000fe00000000000000000000000000000000000000000000000000000000000000fe0000000000000000000000000000000000000000000000000000000000000001",
        "nonce": "0x1c",
        "accessList": []
      },
      "additionalContracts": []
    },
    {
      "hash": "0x8e59d0f63251c92f3670b86f06d41e53c6b2de27e852e48828f34c3d61ef4bf9",
      "transactionType": "CALL",
      "contractName": "RwaRegistry",
      "contractAddress": "0xaC8a4758B568EC09FD52F9Ec6Ff7Bc0383e710AD",
      "function": "add(bytes32,bytes32[],address[],uint256[])",
      "arguments": [
        "0x5257413031320000000000000000000000000000000000000000000000000000",
        "[0x75726e0000000000000000000000000000000000000000000000000000000000, 0x6f7574707574436f6e6475697400000000000000000000000000000000000000, 0x696e707574436f6e647569740000000000000000000000000000000000000000, 0x6c69717569646174696f6e4f7261636c65000000000000000000000000000000]",
        "[0xB22E9DBF60a5b47c8B2D0D6469548F3C2D036B7E, 0x795b917eBe0a812D406ae0f99D71caf36C307e21, 0x795b917eBe0a812D406ae0f99D71caf36C307e21, 0x88f88Bb9E66241B73B84f3A6E197FbBa487b1E30]",
        "[1, 254, 254, 1]"
      ],
      "rpc": "http://localhost:8546",
      "transaction": {
        "type": "0x02",
        "from": "0xf1fdf86e249535cdea1cd2baead3c9b234d75d2a",
        "to": "0xac8a4758b568ec09fd52f9ec6ff7bc0383e710ad",
        "gas": "0x95832",
        "value": "0x0",
        "data": "0x0e14edc152574130313200000000000000000000000000000000000000000000000000000000000000000000000000000000000000000000000000000000000000000080000000000000000000000000000000000000000000000000000000000000012000000000000000000000000000000000000000000000000000000000000001c0000000000000000000000000000000000000000000000000000000000000000475726e00000000000000000000000000000000000000000000000000000000006f7574707574436f6e6475697400000000000000000000000000000000000000696e707574436f6e6475697400000000000000000000000000000000000000006c69717569646174696f6e4f7261636c650000000000000000000000000000000000000000000000000000000000000000000000000000000000000000000004000000000000000000000000b22e9dbf60a5b47c8b2d0d6469548f3c2d036b7e000000000000000000000000795b917ebe0a812d406ae0f99d71caf36c307e21000000000000000000000000795b917ebe0a812d406ae0f99d71caf36c307e2100000000000000000000000088f88bb9e66241b73b84f3a6e197fbba487b1e300000000000000000000000000000000000000000000000000000000000000004000000000000000000000000000000000000000000000000000000000000000100000000000000000000000000000000000000000000000000000000000000fe00000000000000000000000000000000000000000000000000000000000000fe0000000000000000000000000000000000000000000000000000000000000001",
        "nonce": "0x1d",
        "accessList": []
      },
      "additionalContracts": []
    },
    {
      "hash": "0x345ad6f4c51ad51d2176a60131f0ae19f6b3760d3cc4eaa4350f9dff28b6b06f",
      "transactionType": "CALL",
      "contractName": "RwaRegistry",
      "contractAddress": "0xaC8a4758B568EC09FD52F9Ec6Ff7Bc0383e710AD",
      "function": "add(bytes32,bytes32[],address[],uint256[])",
      "arguments": [
        "0x5257413031330000000000000000000000000000000000000000000000000000",
        "[0x75726e0000000000000000000000000000000000000000000000000000000000, 0x6f7574707574436f6e6475697400000000000000000000000000000000000000, 0x696e707574436f6e647569740000000000000000000000000000000000000000, 0x6c69717569646174696f6e4f7261636c65000000000000000000000000000000]",
        "[0x9C170dd80Ee2CA5bfDdF00cbE93e8faB2D05bA6D, 0x615984F33604011Fcd76E9b89803Be3816276E61, 0x615984F33604011Fcd76E9b89803Be3816276E61, 0x88f88Bb9E66241B73B84f3A6E197FbBa487b1E30]",
        "[1, 254, 254, 1]"
      ],
      "rpc": "http://localhost:8546",
      "transaction": {
        "type": "0x02",
        "from": "0xf1fdf86e249535cdea1cd2baead3c9b234d75d2a",
        "to": "0xac8a4758b568ec09fd52f9ec6ff7bc0383e710ad",
        "gas": "0x8d33b",
        "value": "0x0",
        "data": "0x0e14edc152574130313300000000000000000000000000000000000000000000000000000000000000000000000000000000000000000000000000000000000000000080000000000000000000000000000000000000000000000000000000000000012000000000000000000000000000000000000000000000000000000000000001c0000000000000000000000000000000000000000000000000000000000000000475726e00000000000000000000000000000000000000000000000000000000006f7574707574436f6e6475697400000000000000000000000000000000000000696e707574436f6e6475697400000000000000000000000000000000000000006c69717569646174696f6e4f7261636c6500000000000000000000000000000000000000000000000000000000000000000000000000000000000000000000040000000000000000000000009c170dd80ee2ca5bfddf00cbe93e8fab2d05ba6d000000000000000000000000615984f33604011fcd76e9b89803be3816276e61000000000000000000000000615984f33604011fcd76e9b89803be3816276e6100000000000000000000000088f88bb9e66241b73b84f3a6e197fbba487b1e300000000000000000000000000000000000000000000000000000000000000004000000000000000000000000000000000000000000000000000000000000000100000000000000000000000000000000000000000000000000000000000000fe00000000000000000000000000000000000000000000000000000000000000fe0000000000000000000000000000000000000000000000000000000000000001",
        "nonce": "0x1e",
        "accessList": []
      },
      "additionalContracts": []
    },
    {
      "hash": "0x1230f87634d91dd3241876890e2e4cead1a3bf107624a23b0ef9448f8cd07e61",
      "transactionType": "CALL",
      "contractName": "RwaRegistry",
      "contractAddress": "0xaC8a4758B568EC09FD52F9Ec6Ff7Bc0383e710AD",
      "function": "add(bytes32,bytes32[],address[],uint256[])",
      "arguments": [
        "0x4755534400000000000000000000000000000000000000000000000000000000",
        "[0x6a61720000000000000000000000000000000000000000000000000000000000, 0x696e707574436f6e647569740000000000000000000000000000000000000000]",
        "[0xf2E7a5B83525c3017383dEEd19Bb05Fe34a62C27, 0x6934218d8B3E9ffCABEE8cd80F4c1C4167Afa638]",
        "[1, 4]"
      ],
      "rpc": "http://localhost:8546",
      "transaction": {
        "type": "0x02",
        "from": "0xf1fdf86e249535cdea1cd2baead3c9b234d75d2a",
        "to": "0xac8a4758b568ec09fd52f9ec6ff7bc0383e710ad",
        "gas": "0x606f1",
        "value": "0x0",
        "data": "0x0e14edc14755534400000000000000000000000000000000000000000000000000000000000000000000000000000000000000000000000000000000000000000000008000000000000000000000000000000000000000000000000000000000000000e0000000000000000000000000000000000000000000000000000000000000014000000000000000000000000000000000000000000000000000000000000000026a61720000000000000000000000000000000000000000000000000000000000696e707574436f6e6475697400000000000000000000000000000000000000000000000000000000000000000000000000000000000000000000000000000002000000000000000000000000f2e7a5b83525c3017383deed19bb05fe34a62c270000000000000000000000006934218d8b3e9ffcabee8cd80f4c1c4167afa638000000000000000000000000000000000000000000000000000000000000000200000000000000000000000000000000000000000000000000000000000000010000000000000000000000000000000000000000000000000000000000000004",
        "nonce": "0x1f",
        "accessList": []
      },
      "additionalContracts": []
    },
    {
      "hash": "0x728b8f0aefae7ce919019f4bd7a611fedbf9af1cf6abe03385de7ec9a7c121c4",
      "transactionType": "CALL",
      "contractName": "RwaRegistry",
      "contractAddress": "0xaC8a4758B568EC09FD52F9Ec6Ff7Bc0383e710AD",
      "function": "rely(address)",
      "arguments": [
        "0xBE8E3e3618f7474F8cB1d074A26afFef007E98FB"
      ],
      "rpc": "http://localhost:8546",
      "transaction": {
        "type": "0x02",
        "from": "0xf1fdf86e249535cdea1cd2baead3c9b234d75d2a",
        "to": "0xac8a4758b568ec09fd52f9ec6ff7bc0383e710ad",
        "gas": "0x10f58",
        "value": "0x0",
        "data": "0x65fae35e000000000000000000000000be8e3e3618f7474f8cb1d074a26affef007e98fb",
        "nonce": "0x20",
        "accessList": []
      },
      "additionalContracts": []
    },
    {
      "hash": "0x1326f69218e2de91575622f76e96d40c63f666dff086ac65663d84b89c280651",
      "transactionType": "CALL",
      "contractName": "RwaRegistry",
      "contractAddress": "0xaC8a4758B568EC09FD52F9Ec6Ff7Bc0383e710AD",
      "function": "deny(address)",
      "arguments": [
        "0xf1fdF86E249535cDea1Cd2Baead3c9b234d75d2A"
      ],
      "rpc": "http://localhost:8546",
      "transaction": {
        "type": "0x02",
        "from": "0xf1fdf86e249535cdea1cd2baead3c9b234d75d2a",
        "to": "0xac8a4758b568ec09fd52f9ec6ff7bc0383e710ad",
        "gas": "0x7f32",
        "value": "0x0",
        "data": "0x9c52a7f1000000000000000000000000f1fdf86e249535cdea1cd2baead3c9b234d75d2a",
        "nonce": "0x21",
        "accessList": []
      },
      "additionalContracts": []
    }
  ],
  "receipts": [
    {
      "transactionHash": "0x7c75964334b537acc6f3a8a7ef91434a34c1316126047ddfc4d55186d07353b8",
      "transactionIndex": "0x0",
      "blockHash": "0xc297543ec789baf33ef061665270dd57c66684be7de101d5bd882054692f6eaf",
      "blockNumber": "0x104d4e0",
      "from": "0xf1fdF86E249535cDea1Cd2Baead3c9b234d75d2A",
      "to": null,
      "cumulativeGasUsed": "0x316966",
      "gasUsed": "0x316966",
      "contractAddress": "0xaC8a4758B568EC09FD52F9Ec6Ff7Bc0383e710AD",
      "logs": [
        {
          "address": "0xaC8a4758B568EC09FD52F9Ec6Ff7Bc0383e710AD",
          "topics": [
            "0x70a73d328842241b7c45cb20fd99acd1332f2a97ac34dfbe2477d2595dd0f6cc",
            "0x75726e0000000000000000000000000000000000000000000000000000000000"
          ],
          "data": "0x",
          "blockHash": "0xc297543ec789baf33ef061665270dd57c66684be7de101d5bd882054692f6eaf",
          "blockNumber": "0x104d4e0",
          "transactionHash": "0x7c75964334b537acc6f3a8a7ef91434a34c1316126047ddfc4d55186d07353b8",
          "transactionIndex": "0x0",
          "logIndex": "0x0",
          "transactionLogIndex": "0x0",
          "removed": false
        },
        {
          "address": "0xaC8a4758B568EC09FD52F9Ec6Ff7Bc0383e710AD",
          "topics": [
            "0x70a73d328842241b7c45cb20fd99acd1332f2a97ac34dfbe2477d2595dd0f6cc",
            "0x6c69717569646174696f6e4f7261636c65000000000000000000000000000000"
          ],
          "data": "0x",
          "blockHash": "0xc297543ec789baf33ef061665270dd57c66684be7de101d5bd882054692f6eaf",
          "blockNumber": "0x104d4e0",
          "transactionHash": "0x7c75964334b537acc6f3a8a7ef91434a34c1316126047ddfc4d55186d07353b8",
          "transactionIndex": "0x0",
          "logIndex": "0x1",
          "transactionLogIndex": "0x1",
          "removed": false
        },
        {
          "address": "0xaC8a4758B568EC09FD52F9Ec6Ff7Bc0383e710AD",
          "topics": [
            "0x70a73d328842241b7c45cb20fd99acd1332f2a97ac34dfbe2477d2595dd0f6cc",
            "0x6f7574707574436f6e6475697400000000000000000000000000000000000000"
          ],
          "data": "0x",
          "blockHash": "0xc297543ec789baf33ef061665270dd57c66684be7de101d5bd882054692f6eaf",
          "blockNumber": "0x104d4e0",
          "transactionHash": "0x7c75964334b537acc6f3a8a7ef91434a34c1316126047ddfc4d55186d07353b8",
          "transactionIndex": "0x0",
          "logIndex": "0x2",
          "transactionLogIndex": "0x2",
          "removed": false
        },
        {
          "address": "0xaC8a4758B568EC09FD52F9Ec6Ff7Bc0383e710AD",
          "topics": [
            "0x70a73d328842241b7c45cb20fd99acd1332f2a97ac34dfbe2477d2595dd0f6cc",
            "0x696e707574436f6e647569740000000000000000000000000000000000000000"
          ],
          "data": "0x",
          "blockHash": "0xc297543ec789baf33ef061665270dd57c66684be7de101d5bd882054692f6eaf",
          "blockNumber": "0x104d4e0",
          "transactionHash": "0x7c75964334b537acc6f3a8a7ef91434a34c1316126047ddfc4d55186d07353b8",
          "transactionIndex": "0x0",
          "logIndex": "0x3",
          "transactionLogIndex": "0x3",
          "removed": false
        },
        {
          "address": "0xaC8a4758B568EC09FD52F9Ec6Ff7Bc0383e710AD",
          "topics": [
            "0x70a73d328842241b7c45cb20fd99acd1332f2a97ac34dfbe2477d2595dd0f6cc",
            "0x6a61720000000000000000000000000000000000000000000000000000000000"
          ],
          "data": "0x",
          "blockHash": "0xc297543ec789baf33ef061665270dd57c66684be7de101d5bd882054692f6eaf",
          "blockNumber": "0x104d4e0",
          "transactionHash": "0x7c75964334b537acc6f3a8a7ef91434a34c1316126047ddfc4d55186d07353b8",
          "transactionIndex": "0x0",
          "logIndex": "0x4",
          "transactionLogIndex": "0x4",
          "removed": false
        },
        {
          "address": "0xaC8a4758B568EC09FD52F9Ec6Ff7Bc0383e710AD",
          "topics": [
            "0x70a73d328842241b7c45cb20fd99acd1332f2a97ac34dfbe2477d2595dd0f6cc",
            "0x6a6172496e707574436f6e647569740000000000000000000000000000000000"
          ],
          "data": "0x",
          "blockHash": "0xc297543ec789baf33ef061665270dd57c66684be7de101d5bd882054692f6eaf",
          "blockNumber": "0x104d4e0",
          "transactionHash": "0x7c75964334b537acc6f3a8a7ef91434a34c1316126047ddfc4d55186d07353b8",
          "transactionIndex": "0x0",
          "logIndex": "0x5",
          "transactionLogIndex": "0x5",
          "removed": false
        },
        {
          "address": "0xaC8a4758B568EC09FD52F9Ec6Ff7Bc0383e710AD",
          "topics": [
            "0xdd0e34038ac38b2a1ce960229778ac48a8719bc900b6c4f8d0475c6e8b385a60",
            "0x000000000000000000000000f1fdf86e249535cdea1cd2baead3c9b234d75d2a"
          ],
          "data": "0x",
          "blockHash": "0xc297543ec789baf33ef061665270dd57c66684be7de101d5bd882054692f6eaf",
          "blockNumber": "0x104d4e0",
          "transactionHash": "0x7c75964334b537acc6f3a8a7ef91434a34c1316126047ddfc4d55186d07353b8",
          "transactionIndex": "0x0",
          "logIndex": "0x6",
          "transactionLogIndex": "0x6",
          "removed": false
        }
      ],
      "status": "0x1",
      "logsBloom": "0x0000000000000000000000000000000000000000000000000000000000000000000000000000000000000000000000000008400000000000000a000000080000000000400000800010000000000000000000000000000000000000000400000000000000000000000000040001000020000000000000001000000000000080000000000000000000000000000000000000000100000000400000000000080000000000000000000000000000000020000000000000000000000000000000108100000000100000000040000000000000000000000000000000000000000010080000000000000000000000000000000000000004020400020000008000000000",
      "effectiveGasPrice": "0x57e06312e"
    },
    {
      "transactionHash": "0xdebac77692542db315a127a14b68630820be3b23e37fd57b55d34b792c83e180",
      "transactionIndex": "0x0",
      "blockHash": "0xd62d7f33767b8554961d06f56cbe281ae73d589f145a645d2d3683c6937ff2b1",
      "blockNumber": "0x104d4e1",
      "from": "0xf1fdF86E249535cDea1Cd2Baead3c9b234d75d2A",
      "to": "0xaC8a4758B568EC09FD52F9Ec6Ff7Bc0383e710AD",
      "cumulativeGasUsed": "0x6a67d",
      "gasUsed": "0x6a67d",
      "contractAddress": null,
      "logs": [
        {
          "address": "0xaC8a4758B568EC09FD52F9Ec6Ff7Bc0383e710AD",
          "topics": [
            "0xcf69f68c68962239560d329d472bb52d7055ea1c8288005c8b63e7fb5065bfd1",
            "0x5257413030310000000000000000000000000000000000000000000000000000"
          ],
          "data": "0x",
          "blockHash": "0xd62d7f33767b8554961d06f56cbe281ae73d589f145a645d2d3683c6937ff2b1",
          "blockNumber": "0x104d4e1",
          "transactionHash": "0xdebac77692542db315a127a14b68630820be3b23e37fd57b55d34b792c83e180",
          "transactionIndex": "0x0",
          "logIndex": "0x0",
          "transactionLogIndex": "0x0",
          "removed": false
        },
        {
          "address": "0xaC8a4758B568EC09FD52F9Ec6Ff7Bc0383e710AD",
          "topics": [
            "0x0ecdeaedb3c6b93825217b7356e7eae51f1ad8a53576676edb601128d6c863b6",
            "0x5257413030310000000000000000000000000000000000000000000000000000",
            "0x75726e0000000000000000000000000000000000000000000000000000000000"
          ],
          "data": "0x000000000000000000000000a3342059bcdcfa57a13b12a35ed4bbe59b8730050000000000000000000000000000000000000000000000000000000000000001",
          "blockHash": "0xd62d7f33767b8554961d06f56cbe281ae73d589f145a645d2d3683c6937ff2b1",
          "blockNumber": "0x104d4e1",
          "transactionHash": "0xdebac77692542db315a127a14b68630820be3b23e37fd57b55d34b792c83e180",
          "transactionIndex": "0x0",
          "logIndex": "0x1",
          "transactionLogIndex": "0x1",
          "removed": false
        },
        {
          "address": "0xaC8a4758B568EC09FD52F9Ec6Ff7Bc0383e710AD",
          "topics": [
            "0x0ecdeaedb3c6b93825217b7356e7eae51f1ad8a53576676edb601128d6c863b6",
            "0x5257413030310000000000000000000000000000000000000000000000000000",
            "0x6f7574707574436f6e6475697400000000000000000000000000000000000000"
          ],
          "data": "0x000000000000000000000000b3efb912e1cbc0b26fc17388dd433cecd2206c3d0000000000000000000000000000000000000000000000000000000000000001",
          "blockHash": "0xd62d7f33767b8554961d06f56cbe281ae73d589f145a645d2d3683c6937ff2b1",
          "blockNumber": "0x104d4e1",
          "transactionHash": "0xdebac77692542db315a127a14b68630820be3b23e37fd57b55d34b792c83e180",
          "transactionIndex": "0x0",
          "logIndex": "0x2",
          "transactionLogIndex": "0x2",
          "removed": false
        },
        {
          "address": "0xaC8a4758B568EC09FD52F9Ec6Ff7Bc0383e710AD",
          "topics": [
            "0x0ecdeaedb3c6b93825217b7356e7eae51f1ad8a53576676edb601128d6c863b6",
            "0x5257413030310000000000000000000000000000000000000000000000000000",
            "0x696e707574436f6e647569740000000000000000000000000000000000000000"
          ],
          "data": "0x000000000000000000000000486c85e2bb9801d14f6a8fdb78f5108a0fd932f20000000000000000000000000000000000000000000000000000000000000001",
          "blockHash": "0xd62d7f33767b8554961d06f56cbe281ae73d589f145a645d2d3683c6937ff2b1",
          "blockNumber": "0x104d4e1",
          "transactionHash": "0xdebac77692542db315a127a14b68630820be3b23e37fd57b55d34b792c83e180",
          "transactionIndex": "0x0",
          "logIndex": "0x3",
          "transactionLogIndex": "0x3",
          "removed": false
        },
        {
          "address": "0xaC8a4758B568EC09FD52F9Ec6Ff7Bc0383e710AD",
          "topics": [
            "0x0ecdeaedb3c6b93825217b7356e7eae51f1ad8a53576676edb601128d6c863b6",
            "0x5257413030310000000000000000000000000000000000000000000000000000",
            "0x6c69717569646174696f6e4f7261636c65000000000000000000000000000000"
          ],
          "data": "0x00000000000000000000000088f88bb9e66241b73b84f3a6e197fbba487b1e300000000000000000000000000000000000000000000000000000000000000001",
          "blockHash": "0xd62d7f33767b8554961d06f56cbe281ae73d589f145a645d2d3683c6937ff2b1",
          "blockNumber": "0x104d4e1",
          "transactionHash": "0xdebac77692542db315a127a14b68630820be3b23e37fd57b55d34b792c83e180",
          "transactionIndex": "0x0",
          "logIndex": "0x4",
          "transactionLogIndex": "0x4",
          "removed": false
        }
      ],
      "status": "0x1",
      "logsBloom": "0x00000000000000000000000000000000000000000000000000000000000000000000000000000200000800000008000000000000000000000008000000000000000000000000800000000000000000000000000001000000000000000400000000000000000020000000040000000020000000000000000000000000000000000000000000000000000000000000000000000100000000400000000000280000000000000000000000000000000004000000000000000000000000000000108100000000000000000044000000000000000000000000000000000000000040000000000000000000000000000000000000000000020400020000000000000000",
      "effectiveGasPrice": "0x505bd5965"
    },
    {
      "transactionHash": "0x4276d6a51432cc9aea02f64c3cce9e5594bf4396eff5459579a1cf0799054ee3",
      "transactionIndex": "0x1",
      "blockHash": "0xd62d7f33767b8554961d06f56cbe281ae73d589f145a645d2d3683c6937ff2b1",
      "blockNumber": "0x104d4e1",
      "from": "0xf1fdF86E249535cDea1Cd2Baead3c9b234d75d2A",
      "to": "0xaC8a4758B568EC09FD52F9Ec6Ff7Bc0383e710AD",
      "cumulativeGasUsed": "0xd0a2e",
      "gasUsed": "0x663b1",
      "contractAddress": null,
      "logs": [
        {
          "address": "0xaC8a4758B568EC09FD52F9Ec6Ff7Bc0383e710AD",
          "topics": [
            "0xcf69f68c68962239560d329d472bb52d7055ea1c8288005c8b63e7fb5065bfd1",
            "0x5257413030320000000000000000000000000000000000000000000000000000"
          ],
          "data": "0x",
          "blockHash": "0xd62d7f33767b8554961d06f56cbe281ae73d589f145a645d2d3683c6937ff2b1",
          "blockNumber": "0x104d4e1",
          "transactionHash": "0x4276d6a51432cc9aea02f64c3cce9e5594bf4396eff5459579a1cf0799054ee3",
          "transactionIndex": "0x1",
          "logIndex": "0x5",
          "transactionLogIndex": "0x0",
          "removed": false
        },
        {
          "address": "0xaC8a4758B568EC09FD52F9Ec6Ff7Bc0383e710AD",
          "topics": [
            "0x0ecdeaedb3c6b93825217b7356e7eae51f1ad8a53576676edb601128d6c863b6",
            "0x5257413030320000000000000000000000000000000000000000000000000000",
            "0x75726e0000000000000000000000000000000000000000000000000000000000"
          ],
          "data": "0x000000000000000000000000225b3da5be762ee52b182157e67bea0b319681630000000000000000000000000000000000000000000000000000000000000001",
          "blockHash": "0xd62d7f33767b8554961d06f56cbe281ae73d589f145a645d2d3683c6937ff2b1",
          "blockNumber": "0x104d4e1",
          "transactionHash": "0x4276d6a51432cc9aea02f64c3cce9e5594bf4396eff5459579a1cf0799054ee3",
          "transactionIndex": "0x1",
          "logIndex": "0x6",
          "transactionLogIndex": "0x1",
          "removed": false
        },
        {
          "address": "0xaC8a4758B568EC09FD52F9Ec6Ff7Bc0383e710AD",
          "topics": [
            "0x0ecdeaedb3c6b93825217b7356e7eae51f1ad8a53576676edb601128d6c863b6",
            "0x5257413030320000000000000000000000000000000000000000000000000000",
            "0x6f7574707574436f6e6475697400000000000000000000000000000000000000"
          ],
          "data": "0x0000000000000000000000002474f297214e5d96ba4c81986a9f0e5c260f445d00000000000000000000000000000000000000000000000000000000000000fe",
          "blockHash": "0xd62d7f33767b8554961d06f56cbe281ae73d589f145a645d2d3683c6937ff2b1",
          "blockNumber": "0x104d4e1",
          "transactionHash": "0x4276d6a51432cc9aea02f64c3cce9e5594bf4396eff5459579a1cf0799054ee3",
          "transactionIndex": "0x1",
          "logIndex": "0x7",
          "transactionLogIndex": "0x2",
          "removed": false
        },
        {
          "address": "0xaC8a4758B568EC09FD52F9Ec6Ff7Bc0383e710AD",
          "topics": [
            "0x0ecdeaedb3c6b93825217b7356e7eae51f1ad8a53576676edb601128d6c863b6",
            "0x5257413030320000000000000000000000000000000000000000000000000000",
            "0x696e707574436f6e647569740000000000000000000000000000000000000000"
          ],
          "data": "0x0000000000000000000000002474f297214e5d96ba4c81986a9f0e5c260f445d00000000000000000000000000000000000000000000000000000000000000fe",
          "blockHash": "0xd62d7f33767b8554961d06f56cbe281ae73d589f145a645d2d3683c6937ff2b1",
          "blockNumber": "0x104d4e1",
          "transactionHash": "0x4276d6a51432cc9aea02f64c3cce9e5594bf4396eff5459579a1cf0799054ee3",
          "transactionIndex": "0x1",
          "logIndex": "0x8",
          "transactionLogIndex": "0x3",
          "removed": false
        },
        {
          "address": "0xaC8a4758B568EC09FD52F9Ec6Ff7Bc0383e710AD",
          "topics": [
            "0x0ecdeaedb3c6b93825217b7356e7eae51f1ad8a53576676edb601128d6c863b6",
            "0x5257413030320000000000000000000000000000000000000000000000000000",
            "0x6c69717569646174696f6e4f7261636c65000000000000000000000000000000"
          ],
          "data": "0x00000000000000000000000088f88bb9e66241b73b84f3a6e197fbba487b1e300000000000000000000000000000000000000000000000000000000000000001",
          "blockHash": "0xd62d7f33767b8554961d06f56cbe281ae73d589f145a645d2d3683c6937ff2b1",
          "blockNumber": "0x104d4e1",
          "transactionHash": "0x4276d6a51432cc9aea02f64c3cce9e5594bf4396eff5459579a1cf0799054ee3",
          "transactionIndex": "0x1",
          "logIndex": "0x9",
          "transactionLogIndex": "0x4",
          "removed": false
        }
      ],
      "status": "0x1",
      "logsBloom": "0x00000000000000000000000000200000000000000000000000000000000000000000000000000000000800000008000000000000100000000008000000000000000000000000800000000000000000000000000000000000000000000400000000000000000000000000040000000020000000000000000000000000000000000000000000000000000000000000000000000100000000400000000000280000000000000000000000000000000004000000000000000000000000000000108100000000000000000044000000000000000000000000000000000000000040000001000000000000000000000000000000000000020400020000000000000000",
      "effectiveGasPrice": "0x505bd5965"
    },
    {
      "transactionHash": "0xaecae109177c346834e1522195d18ae348668a5a926f1a4a76c552275b031d46",
      "transactionIndex": "0x2",
      "blockHash": "0xd62d7f33767b8554961d06f56cbe281ae73d589f145a645d2d3683c6937ff2b1",
      "blockNumber": "0x104d4e1",
      "from": "0xf1fdF86E249535cDea1Cd2Baead3c9b234d75d2A",
      "to": "0xaC8a4758B568EC09FD52F9Ec6Ff7Bc0383e710AD",
      "cumulativeGasUsed": "0x136ddf",
      "gasUsed": "0x663b1",
      "contractAddress": null,
      "logs": [
        {
          "address": "0xaC8a4758B568EC09FD52F9Ec6Ff7Bc0383e710AD",
          "topics": [
            "0xcf69f68c68962239560d329d472bb52d7055ea1c8288005c8b63e7fb5065bfd1",
            "0x5257413030330000000000000000000000000000000000000000000000000000"
          ],
          "data": "0x",
          "blockHash": "0xd62d7f33767b8554961d06f56cbe281ae73d589f145a645d2d3683c6937ff2b1",
          "blockNumber": "0x104d4e1",
          "transactionHash": "0xaecae109177c346834e1522195d18ae348668a5a926f1a4a76c552275b031d46",
          "transactionIndex": "0x2",
          "logIndex": "0xa",
          "transactionLogIndex": "0x0",
          "removed": false
        },
        {
          "address": "0xaC8a4758B568EC09FD52F9Ec6Ff7Bc0383e710AD",
          "topics": [
            "0x0ecdeaedb3c6b93825217b7356e7eae51f1ad8a53576676edb601128d6c863b6",
            "0x5257413030330000000000000000000000000000000000000000000000000000",
            "0x75726e0000000000000000000000000000000000000000000000000000000000"
          ],
          "data": "0x0000000000000000000000007bf825718e7c388c3be16cfe9982539a7455540f0000000000000000000000000000000000000000000000000000000000000001",
          "blockHash": "0xd62d7f33767b8554961d06f56cbe281ae73d589f145a645d2d3683c6937ff2b1",
          "blockNumber": "0x104d4e1",
          "transactionHash": "0xaecae109177c346834e1522195d18ae348668a5a926f1a4a76c552275b031d46",
          "transactionIndex": "0x2",
          "logIndex": "0xb",
          "transactionLogIndex": "0x1",
          "removed": false
        },
        {
          "address": "0xaC8a4758B568EC09FD52F9Ec6Ff7Bc0383e710AD",
          "topics": [
            "0x0ecdeaedb3c6b93825217b7356e7eae51f1ad8a53576676edb601128d6c863b6",
            "0x5257413030330000000000000000000000000000000000000000000000000000",
            "0x6f7574707574436f6e6475697400000000000000000000000000000000000000"
          ],
          "data": "0x0000000000000000000000002a9798c6f165b6d60cfb923fe5bfd6f338695d9b00000000000000000000000000000000000000000000000000000000000000fe",
          "blockHash": "0xd62d7f33767b8554961d06f56cbe281ae73d589f145a645d2d3683c6937ff2b1",
          "blockNumber": "0x104d4e1",
          "transactionHash": "0xaecae109177c346834e1522195d18ae348668a5a926f1a4a76c552275b031d46",
          "transactionIndex": "0x2",
          "logIndex": "0xc",
          "transactionLogIndex": "0x2",
          "removed": false
        },
        {
          "address": "0xaC8a4758B568EC09FD52F9Ec6Ff7Bc0383e710AD",
          "topics": [
            "0x0ecdeaedb3c6b93825217b7356e7eae51f1ad8a53576676edb601128d6c863b6",
            "0x5257413030330000000000000000000000000000000000000000000000000000",
            "0x696e707574436f6e647569740000000000000000000000000000000000000000"
          ],
          "data": "0x0000000000000000000000002a9798c6f165b6d60cfb923fe5bfd6f338695d9b00000000000000000000000000000000000000000000000000000000000000fe",
          "blockHash": "0xd62d7f33767b8554961d06f56cbe281ae73d589f145a645d2d3683c6937ff2b1",
          "blockNumber": "0x104d4e1",
          "transactionHash": "0xaecae109177c346834e1522195d18ae348668a5a926f1a4a76c552275b031d46",
          "transactionIndex": "0x2",
          "logIndex": "0xd",
          "transactionLogIndex": "0x3",
          "removed": false
        },
        {
          "address": "0xaC8a4758B568EC09FD52F9Ec6Ff7Bc0383e710AD",
          "topics": [
            "0x0ecdeaedb3c6b93825217b7356e7eae51f1ad8a53576676edb601128d6c863b6",
            "0x5257413030330000000000000000000000000000000000000000000000000000",
            "0x6c69717569646174696f6e4f7261636c65000000000000000000000000000000"
          ],
          "data": "0x00000000000000000000000088f88bb9e66241b73b84f3a6e197fbba487b1e300000000000000000000000000000000000000000000000000000000000000001",
          "blockHash": "0xd62d7f33767b8554961d06f56cbe281ae73d589f145a645d2d3683c6937ff2b1",
          "blockNumber": "0x104d4e1",
          "transactionHash": "0xaecae109177c346834e1522195d18ae348668a5a926f1a4a76c552275b031d46",
          "transactionIndex": "0x2",
          "logIndex": "0xe",
          "transactionLogIndex": "0x4",
          "removed": false
        }
      ],
      "status": "0x1",
      "logsBloom": "0x00000000000000000000000000000000000000000000000000000000000000000000000000000000000800000008008000000000000000000008000000000000000000000000800000000000000000000000000000000000000000000400000000000000000000000000040000000020000000000000000000000000000000000000000000004000000000000000000000000100000000400000000000280000000000000000000000000000000004000000000000000000000000000000108100100000000000000044000000000000000000000000000000000000000040000000000000000000000000000000000000000000020400020000000000000000",
      "effectiveGasPrice": "0x505bd5965"
    },
    {
      "transactionHash": "0x1a84c0416eb2960c5fc3c680f669792ae72949a9f7ea5a814a8e3ac6fa84f8b1",
      "transactionIndex": "0x3",
      "blockHash": "0xd62d7f33767b8554961d06f56cbe281ae73d589f145a645d2d3683c6937ff2b1",
      "blockNumber": "0x104d4e1",
      "from": "0xf1fdF86E249535cDea1Cd2Baead3c9b234d75d2A",
      "to": "0xaC8a4758B568EC09FD52F9Ec6Ff7Bc0383e710AD",
      "cumulativeGasUsed": "0x19d190",
      "gasUsed": "0x663b1",
      "contractAddress": null,
      "logs": [
        {
          "address": "0xaC8a4758B568EC09FD52F9Ec6Ff7Bc0383e710AD",
          "topics": [
            "0xcf69f68c68962239560d329d472bb52d7055ea1c8288005c8b63e7fb5065bfd1",
            "0x5257413030340000000000000000000000000000000000000000000000000000"
          ],
          "data": "0x",
          "blockHash": "0xd62d7f33767b8554961d06f56cbe281ae73d589f145a645d2d3683c6937ff2b1",
          "blockNumber": "0x104d4e1",
          "transactionHash": "0x1a84c0416eb2960c5fc3c680f669792ae72949a9f7ea5a814a8e3ac6fa84f8b1",
          "transactionIndex": "0x3",
          "logIndex": "0xf",
          "transactionLogIndex": "0x0",
          "removed": false
        },
        {
          "address": "0xaC8a4758B568EC09FD52F9Ec6Ff7Bc0383e710AD",
          "topics": [
            "0x0ecdeaedb3c6b93825217b7356e7eae51f1ad8a53576676edb601128d6c863b6",
            "0x5257413030340000000000000000000000000000000000000000000000000000",
            "0x75726e0000000000000000000000000000000000000000000000000000000000"
          ],
          "data": "0x000000000000000000000000ef1699548717aa4cf47ad738316280b56814c8210000000000000000000000000000000000000000000000000000000000000001",
          "blockHash": "0xd62d7f33767b8554961d06f56cbe281ae73d589f145a645d2d3683c6937ff2b1",
          "blockNumber": "0x104d4e1",
          "transactionHash": "0x1a84c0416eb2960c5fc3c680f669792ae72949a9f7ea5a814a8e3ac6fa84f8b1",
          "transactionIndex": "0x3",
          "logIndex": "0x10",
          "transactionLogIndex": "0x1",
          "removed": false
        },
        {
          "address": "0xaC8a4758B568EC09FD52F9Ec6Ff7Bc0383e710AD",
          "topics": [
            "0x0ecdeaedb3c6b93825217b7356e7eae51f1ad8a53576676edb601128d6c863b6",
            "0x5257413030340000000000000000000000000000000000000000000000000000",
            "0x6f7574707574436f6e6475697400000000000000000000000000000000000000"
          ],
          "data": "0x000000000000000000000000e1ed3f588a98bf8a3744f4bf74fd8540e81ade3f00000000000000000000000000000000000000000000000000000000000000fe",
          "blockHash": "0xd62d7f33767b8554961d06f56cbe281ae73d589f145a645d2d3683c6937ff2b1",
          "blockNumber": "0x104d4e1",
          "transactionHash": "0x1a84c0416eb2960c5fc3c680f669792ae72949a9f7ea5a814a8e3ac6fa84f8b1",
          "transactionIndex": "0x3",
          "logIndex": "0x11",
          "transactionLogIndex": "0x2",
          "removed": false
        },
        {
          "address": "0xaC8a4758B568EC09FD52F9Ec6Ff7Bc0383e710AD",
          "topics": [
            "0x0ecdeaedb3c6b93825217b7356e7eae51f1ad8a53576676edb601128d6c863b6",
            "0x5257413030340000000000000000000000000000000000000000000000000000",
            "0x696e707574436f6e647569740000000000000000000000000000000000000000"
          ],
          "data": "0x000000000000000000000000e1ed3f588a98bf8a3744f4bf74fd8540e81ade3f00000000000000000000000000000000000000000000000000000000000000fe",
          "blockHash": "0xd62d7f33767b8554961d06f56cbe281ae73d589f145a645d2d3683c6937ff2b1",
          "blockNumber": "0x104d4e1",
          "transactionHash": "0x1a84c0416eb2960c5fc3c680f669792ae72949a9f7ea5a814a8e3ac6fa84f8b1",
          "transactionIndex": "0x3",
          "logIndex": "0x12",
          "transactionLogIndex": "0x3",
          "removed": false
        },
        {
          "address": "0xaC8a4758B568EC09FD52F9Ec6Ff7Bc0383e710AD",
          "topics": [
            "0x0ecdeaedb3c6b93825217b7356e7eae51f1ad8a53576676edb601128d6c863b6",
            "0x5257413030340000000000000000000000000000000000000000000000000000",
            "0x6c69717569646174696f6e4f7261636c65000000000000000000000000000000"
          ],
          "data": "0x00000000000000000000000088f88bb9e66241b73b84f3a6e197fbba487b1e300000000000000000000000000000000000000000000000000000000000000001",
          "blockHash": "0xd62d7f33767b8554961d06f56cbe281ae73d589f145a645d2d3683c6937ff2b1",
          "blockNumber": "0x104d4e1",
          "transactionHash": "0x1a84c0416eb2960c5fc3c680f669792ae72949a9f7ea5a814a8e3ac6fa84f8b1",
          "transactionIndex": "0x3",
          "logIndex": "0x13",
          "transactionLogIndex": "0x4",
          "removed": false
        }
      ],
      "status": "0x1",
      "logsBloom": "0x00000008000000000000000000000000000000000000000000000000000000000000000000000000000800000008000000000000000000000008000000000000000000000000800000000000000000000000000000000000000000000400000000000000000000000000040000000020000000000000000000000000000000000000000000000000000000000000000000000100000000400000000000280000040000000000000000000000000004000000000000000000000000000000108100000000000040000044000000000000000000000000000000000000000040000000000000000000000000000000000000000000020400020000000000000000",
      "effectiveGasPrice": "0x505bd5965"
    },
    {
      "transactionHash": "0x9cf9155afa9c21159e3c5dd5f15208c00692c99e6ee3662782e1ab41afdc2404",
      "transactionIndex": "0x4",
      "blockHash": "0xd62d7f33767b8554961d06f56cbe281ae73d589f145a645d2d3683c6937ff2b1",
      "blockNumber": "0x104d4e1",
      "from": "0xf1fdF86E249535cDea1Cd2Baead3c9b234d75d2A",
      "to": "0xaC8a4758B568EC09FD52F9Ec6Ff7Bc0383e710AD",
      "cumulativeGasUsed": "0x203541",
      "gasUsed": "0x663b1",
      "contractAddress": null,
      "logs": [
        {
          "address": "0xaC8a4758B568EC09FD52F9Ec6Ff7Bc0383e710AD",
          "topics": [
            "0xcf69f68c68962239560d329d472bb52d7055ea1c8288005c8b63e7fb5065bfd1",
            "0x5257413030350000000000000000000000000000000000000000000000000000"
          ],
          "data": "0x",
          "blockHash": "0xd62d7f33767b8554961d06f56cbe281ae73d589f145a645d2d3683c6937ff2b1",
          "blockNumber": "0x104d4e1",
          "transactionHash": "0x9cf9155afa9c21159e3c5dd5f15208c00692c99e6ee3662782e1ab41afdc2404",
          "transactionIndex": "0x4",
          "logIndex": "0x14",
          "transactionLogIndex": "0x0",
          "removed": false
        },
        {
          "address": "0xaC8a4758B568EC09FD52F9Ec6Ff7Bc0383e710AD",
          "topics": [
            "0x0ecdeaedb3c6b93825217b7356e7eae51f1ad8a53576676edb601128d6c863b6",
            "0x5257413030350000000000000000000000000000000000000000000000000000",
            "0x75726e0000000000000000000000000000000000000000000000000000000000"
          ],
          "data": "0x000000000000000000000000c40907545c57db30f01a1c2acb242c7c7acb2b900000000000000000000000000000000000000000000000000000000000000001",
          "blockHash": "0xd62d7f33767b8554961d06f56cbe281ae73d589f145a645d2d3683c6937ff2b1",
          "blockNumber": "0x104d4e1",
          "transactionHash": "0x9cf9155afa9c21159e3c5dd5f15208c00692c99e6ee3662782e1ab41afdc2404",
          "transactionIndex": "0x4",
          "logIndex": "0x15",
          "transactionLogIndex": "0x1",
          "removed": false
        },
        {
          "address": "0xaC8a4758B568EC09FD52F9Ec6Ff7Bc0383e710AD",
          "topics": [
            "0x0ecdeaedb3c6b93825217b7356e7eae51f1ad8a53576676edb601128d6c863b6",
            "0x5257413030350000000000000000000000000000000000000000000000000000",
            "0x6f7574707574436f6e6475697400000000000000000000000000000000000000"
          ],
          "data": "0x0000000000000000000000005b702e1fef3f556cbe219ee697d7f170a236cc6600000000000000000000000000000000000000000000000000000000000000fe",
          "blockHash": "0xd62d7f33767b8554961d06f56cbe281ae73d589f145a645d2d3683c6937ff2b1",
          "blockNumber": "0x104d4e1",
          "transactionHash": "0x9cf9155afa9c21159e3c5dd5f15208c00692c99e6ee3662782e1ab41afdc2404",
          "transactionIndex": "0x4",
          "logIndex": "0x16",
          "transactionLogIndex": "0x2",
          "removed": false
        },
        {
          "address": "0xaC8a4758B568EC09FD52F9Ec6Ff7Bc0383e710AD",
          "topics": [
            "0x0ecdeaedb3c6b93825217b7356e7eae51f1ad8a53576676edb601128d6c863b6",
            "0x5257413030350000000000000000000000000000000000000000000000000000",
            "0x696e707574436f6e647569740000000000000000000000000000000000000000"
          ],
          "data": "0x0000000000000000000000005b702e1fef3f556cbe219ee697d7f170a236cc6600000000000000000000000000000000000000000000000000000000000000fe",
          "blockHash": "0xd62d7f33767b8554961d06f56cbe281ae73d589f145a645d2d3683c6937ff2b1",
          "blockNumber": "0x104d4e1",
          "transactionHash": "0x9cf9155afa9c21159e3c5dd5f15208c00692c99e6ee3662782e1ab41afdc2404",
          "transactionIndex": "0x4",
          "logIndex": "0x17",
          "transactionLogIndex": "0x3",
          "removed": false
        },
        {
          "address": "0xaC8a4758B568EC09FD52F9Ec6Ff7Bc0383e710AD",
          "topics": [
            "0x0ecdeaedb3c6b93825217b7356e7eae51f1ad8a53576676edb601128d6c863b6",
            "0x5257413030350000000000000000000000000000000000000000000000000000",
            "0x6c69717569646174696f6e4f7261636c65000000000000000000000000000000"
          ],
          "data": "0x00000000000000000000000088f88bb9e66241b73b84f3a6e197fbba487b1e300000000000000000000000000000000000000000000000000000000000000001",
          "blockHash": "0xd62d7f33767b8554961d06f56cbe281ae73d589f145a645d2d3683c6937ff2b1",
          "blockNumber": "0x104d4e1",
          "transactionHash": "0x9cf9155afa9c21159e3c5dd5f15208c00692c99e6ee3662782e1ab41afdc2404",
          "transactionIndex": "0x4",
          "logIndex": "0x18",
          "transactionLogIndex": "0x4",
          "removed": false
        }
      ],
      "status": "0x1",
      "logsBloom": "0x00000000000000000000000000000000000000000000000000000000000000000000000000000000000800000008000000000000000000000008000000000000000000000000800000100000000000000000000000000000000000000400000000000000000000000000040000000020000000000000000000000000000000000000000000000000000000000000000000000100000000400000000010280000000000000008000000000000000004000000000000000000000000000000108100000000000000000044000000000000000000000000000000000000000040000000000000000000000000000000000000000000020400020000000000000000",
      "effectiveGasPrice": "0x505bd5965"
    },
    {
      "transactionHash": "0x6f21f4570bd2aee10d98bf2d503f10e49ef1f867c9065ad6f01900cadcad4ba7",
      "transactionIndex": "0x5",
      "blockHash": "0xd62d7f33767b8554961d06f56cbe281ae73d589f145a645d2d3683c6937ff2b1",
      "blockNumber": "0x104d4e1",
      "from": "0xf1fdF86E249535cDea1Cd2Baead3c9b234d75d2A",
      "to": "0xaC8a4758B568EC09FD52F9Ec6Ff7Bc0383e710AD",
      "cumulativeGasUsed": "0x2698f2",
      "gasUsed": "0x663b1",
      "contractAddress": null,
      "logs": [
        {
          "address": "0xaC8a4758B568EC09FD52F9Ec6Ff7Bc0383e710AD",
          "topics": [
            "0xcf69f68c68962239560d329d472bb52d7055ea1c8288005c8b63e7fb5065bfd1",
            "0x5257413030360000000000000000000000000000000000000000000000000000"
          ],
          "data": "0x",
          "blockHash": "0xd62d7f33767b8554961d06f56cbe281ae73d589f145a645d2d3683c6937ff2b1",
          "blockNumber": "0x104d4e1",
          "transactionHash": "0x6f21f4570bd2aee10d98bf2d503f10e49ef1f867c9065ad6f01900cadcad4ba7",
          "transactionIndex": "0x5",
          "logIndex": "0x19",
          "transactionLogIndex": "0x0",
          "removed": false
        },
        {
          "address": "0xaC8a4758B568EC09FD52F9Ec6Ff7Bc0383e710AD",
          "topics": [
            "0x0ecdeaedb3c6b93825217b7356e7eae51f1ad8a53576676edb601128d6c863b6",
            "0x5257413030360000000000000000000000000000000000000000000000000000",
            "0x75726e0000000000000000000000000000000000000000000000000000000000"
          ],
          "data": "0x0000000000000000000000000c185bf5388ddfdb288f4d875265d456d18fd9cb0000000000000000000000000000000000000000000000000000000000000001",
          "blockHash": "0xd62d7f33767b8554961d06f56cbe281ae73d589f145a645d2d3683c6937ff2b1",
          "blockNumber": "0x104d4e1",
          "transactionHash": "0x6f21f4570bd2aee10d98bf2d503f10e49ef1f867c9065ad6f01900cadcad4ba7",
          "transactionIndex": "0x5",
          "logIndex": "0x1a",
          "transactionLogIndex": "0x1",
          "removed": false
        },
        {
          "address": "0xaC8a4758B568EC09FD52F9Ec6Ff7Bc0383e710AD",
          "topics": [
            "0x0ecdeaedb3c6b93825217b7356e7eae51f1ad8a53576676edb601128d6c863b6",
            "0x5257413030360000000000000000000000000000000000000000000000000000",
            "0x6f7574707574436f6e6475697400000000000000000000000000000000000000"
          ],
          "data": "0x0000000000000000000000008fe38d1e4293181273e2e323e4c16e0d1d4861e300000000000000000000000000000000000000000000000000000000000000fe",
          "blockHash": "0xd62d7f33767b8554961d06f56cbe281ae73d589f145a645d2d3683c6937ff2b1",
          "blockNumber": "0x104d4e1",
          "transactionHash": "0x6f21f4570bd2aee10d98bf2d503f10e49ef1f867c9065ad6f01900cadcad4ba7",
          "transactionIndex": "0x5",
          "logIndex": "0x1b",
          "transactionLogIndex": "0x2",
          "removed": false
        },
        {
          "address": "0xaC8a4758B568EC09FD52F9Ec6Ff7Bc0383e710AD",
          "topics": [
            "0x0ecdeaedb3c6b93825217b7356e7eae51f1ad8a53576676edb601128d6c863b6",
            "0x5257413030360000000000000000000000000000000000000000000000000000",
            "0x696e707574436f6e647569740000000000000000000000000000000000000000"
          ],
          "data": "0x0000000000000000000000008fe38d1e4293181273e2e323e4c16e0d1d4861e300000000000000000000000000000000000000000000000000000000000000fe",
          "blockHash": "0xd62d7f33767b8554961d06f56cbe281ae73d589f145a645d2d3683c6937ff2b1",
          "blockNumber": "0x104d4e1",
          "transactionHash": "0x6f21f4570bd2aee10d98bf2d503f10e49ef1f867c9065ad6f01900cadcad4ba7",
          "transactionIndex": "0x5",
          "logIndex": "0x1c",
          "transactionLogIndex": "0x3",
          "removed": false
        },
        {
          "address": "0xaC8a4758B568EC09FD52F9Ec6Ff7Bc0383e710AD",
          "topics": [
            "0x0ecdeaedb3c6b93825217b7356e7eae51f1ad8a53576676edb601128d6c863b6",
            "0x5257413030360000000000000000000000000000000000000000000000000000",
            "0x6c69717569646174696f6e4f7261636c65000000000000000000000000000000"
          ],
          "data": "0x00000000000000000000000088f88bb9e66241b73b84f3a6e197fbba487b1e300000000000000000000000000000000000000000000000000000000000000001",
          "blockHash": "0xd62d7f33767b8554961d06f56cbe281ae73d589f145a645d2d3683c6937ff2b1",
          "blockNumber": "0x104d4e1",
          "transactionHash": "0x6f21f4570bd2aee10d98bf2d503f10e49ef1f867c9065ad6f01900cadcad4ba7",
          "transactionIndex": "0x5",
          "logIndex": "0x1d",
          "transactionLogIndex": "0x4",
          "removed": false
        }
      ],
      "status": "0x1",
      "logsBloom": "0x00000000000000000000000000000000000000000000000000000000000000000000000000000000000800000008000000000000000000000008000000000000000000000008800000000000000000000000000000000000000000000400000000000000000000000000040000000020000000000000000000000000000000000000000000000000000000000000000000000100000000400000000000280000000000000000000000000800800004000000000000000000000000000000108100000000000000000044000000000000000000000000000000000000000040000000000000000000000000000000000000000000020400020000000000000000",
      "effectiveGasPrice": "0x505bd5965"
    },
    {
      "transactionHash": "0xa4735d118da8dc53ac14c510567a126e5b1ba01d8a05893fa599fbe874706137",
      "transactionIndex": "0x6",
      "blockHash": "0xd62d7f33767b8554961d06f56cbe281ae73d589f145a645d2d3683c6937ff2b1",
      "blockNumber": "0x104d4e1",
      "from": "0xf1fdF86E249535cDea1Cd2Baead3c9b234d75d2A",
      "to": "0xaC8a4758B568EC09FD52F9Ec6Ff7Bc0383e710AD",
      "cumulativeGasUsed": "0x2f409f",
      "gasUsed": "0x8a7ad",
      "contractAddress": null,
      "logs": [
        {
          "address": "0xaC8a4758B568EC09FD52F9Ec6Ff7Bc0383e710AD",
          "topics": [
            "0xcf69f68c68962239560d329d472bb52d7055ea1c8288005c8b63e7fb5065bfd1",
            "0x5257413030370000000000000000000000000000000000000000000000000000"
          ],
          "data": "0x",
          "blockHash": "0xd62d7f33767b8554961d06f56cbe281ae73d589f145a645d2d3683c6937ff2b1",
          "blockNumber": "0x104d4e1",
          "transactionHash": "0xa4735d118da8dc53ac14c510567a126e5b1ba01d8a05893fa599fbe874706137",
          "transactionIndex": "0x6",
          "logIndex": "0x2a",
          "transactionLogIndex": "0x0",
          "removed": false
        },
        {
          "address": "0xaC8a4758B568EC09FD52F9Ec6Ff7Bc0383e710AD",
          "topics": [
            "0x0ecdeaedb3c6b93825217b7356e7eae51f1ad8a53576676edb601128d6c863b6",
            "0x5257413030370000000000000000000000000000000000000000000000000000",
            "0x75726e0000000000000000000000000000000000000000000000000000000000"
          ],
          "data": "0x000000000000000000000000481ba2d2e86a1c41427893899b5b0ceae41c67260000000000000000000000000000000000000000000000000000000000000002",
          "blockHash": "0xd62d7f33767b8554961d06f56cbe281ae73d589f145a645d2d3683c6937ff2b1",
          "blockNumber": "0x104d4e1",
          "transactionHash": "0xa4735d118da8dc53ac14c510567a126e5b1ba01d8a05893fa599fbe874706137",
          "transactionIndex": "0x6",
          "logIndex": "0x2b",
          "transactionLogIndex": "0x1",
          "removed": false
        },
        {
          "address": "0xaC8a4758B568EC09FD52F9Ec6Ff7Bc0383e710AD",
          "topics": [
            "0x0ecdeaedb3c6b93825217b7356e7eae51f1ad8a53576676edb601128d6c863b6",
            "0x5257413030370000000000000000000000000000000000000000000000000000",
            "0x6a61720000000000000000000000000000000000000000000000000000000000"
          ],
          "data": "0x000000000000000000000000ef1b095f700be471981aae025f92b03091c3ad470000000000000000000000000000000000000000000000000000000000000001",
          "blockHash": "0xd62d7f33767b8554961d06f56cbe281ae73d589f145a645d2d3683c6937ff2b1",
          "blockNumber": "0x104d4e1",
          "transactionHash": "0xa4735d118da8dc53ac14c510567a126e5b1ba01d8a05893fa599fbe874706137",
          "transactionIndex": "0x6",
          "logIndex": "0x2c",
          "transactionLogIndex": "0x2",
          "removed": false
        },
        {
          "address": "0xaC8a4758B568EC09FD52F9Ec6Ff7Bc0383e710AD",
          "topics": [
            "0x0ecdeaedb3c6b93825217b7356e7eae51f1ad8a53576676edb601128d6c863b6",
            "0x5257413030370000000000000000000000000000000000000000000000000000",
            "0x6a6172496e707574436f6e647569740000000000000000000000000000000000"
          ],
          "data": "0x000000000000000000000000c8bb4e2b249703640e89265e2ae7c9d5ea2af7420000000000000000000000000000000000000000000000000000000000000003",
          "blockHash": "0xd62d7f33767b8554961d06f56cbe281ae73d589f145a645d2d3683c6937ff2b1",
          "blockNumber": "0x104d4e1",
          "transactionHash": "0xa4735d118da8dc53ac14c510567a126e5b1ba01d8a05893fa599fbe874706137",
          "transactionIndex": "0x6",
          "logIndex": "0x2d",
          "transactionLogIndex": "0x3",
          "removed": false
        },
        {
          "address": "0xaC8a4758B568EC09FD52F9Ec6Ff7Bc0383e710AD",
          "topics": [
            "0x0ecdeaedb3c6b93825217b7356e7eae51f1ad8a53576676edb601128d6c863b6",
            "0x5257413030370000000000000000000000000000000000000000000000000000",
            "0x6f7574707574436f6e6475697400000000000000000000000000000000000000"
          ],
          "data": "0x000000000000000000000000701c3a384c613157bf473152844f368f2d6ef1910000000000000000000000000000000000000000000000000000000000000003",
          "blockHash": "0xd62d7f33767b8554961d06f56cbe281ae73d589f145a645d2d3683c6937ff2b1",
          "blockNumber": "0x104d4e1",
          "transactionHash": "0xa4735d118da8dc53ac14c510567a126e5b1ba01d8a05893fa599fbe874706137",
          "transactionIndex": "0x6",
          "logIndex": "0x2e",
          "transactionLogIndex": "0x4",
          "removed": false
        },
        {
          "address": "0xaC8a4758B568EC09FD52F9Ec6Ff7Bc0383e710AD",
          "topics": [
            "0x0ecdeaedb3c6b93825217b7356e7eae51f1ad8a53576676edb601128d6c863b6",
            "0x5257413030370000000000000000000000000000000000000000000000000000",
            "0x696e707574436f6e647569740000000000000000000000000000000000000000"
          ],
          "data": "0x00000000000000000000000058f5e979ef74b60a9e5f955553ab8e0e65ba89c90000000000000000000000000000000000000000000000000000000000000003",
          "blockHash": "0xd62d7f33767b8554961d06f56cbe281ae73d589f145a645d2d3683c6937ff2b1",
          "blockNumber": "0x104d4e1",
          "transactionHash": "0xa4735d118da8dc53ac14c510567a126e5b1ba01d8a05893fa599fbe874706137",
          "transactionIndex": "0x6",
          "logIndex": "0x2f",
          "transactionLogIndex": "0x5",
          "removed": false
        },
        {
          "address": "0xaC8a4758B568EC09FD52F9Ec6Ff7Bc0383e710AD",
          "topics": [
            "0x0ecdeaedb3c6b93825217b7356e7eae51f1ad8a53576676edb601128d6c863b6",
            "0x5257413030370000000000000000000000000000000000000000000000000000",
            "0x6c69717569646174696f6e4f7261636c65000000000000000000000000000000"
          ],
          "data": "0x00000000000000000000000088f88bb9e66241b73b84f3a6e197fbba487b1e300000000000000000000000000000000000000000000000000000000000000001",
          "blockHash": "0xd62d7f33767b8554961d06f56cbe281ae73d589f145a645d2d3683c6937ff2b1",
          "blockNumber": "0x104d4e1",
          "transactionHash": "0xa4735d118da8dc53ac14c510567a126e5b1ba01d8a05893fa599fbe874706137",
          "transactionIndex": "0x6",
          "logIndex": "0x30",
          "transactionLogIndex": "0x6",
          "removed": false
        }
      ],
      "status": "0x1",
      "logsBloom": "0x00000000000000000000000000000000000000000000000000000000000000000000000000000000000800000008000000000000000000000008000000080000000000000000800000000000000000000000000000000000000000000400010000000000000000000000040001000020000000000000001000000000000000000000000000000000000000000000000000000100000000400000100000280000000000000000000000000000000024000000000000000000000000000000108100000000000000000044000000000000000000004000000000000000000040080000000000000000000000000000000000000000020400020000008000000000",
      "effectiveGasPrice": "0x505bd5965"
    },
    {
      "transactionHash": "0xc464530bfa15bdad1e7ace8bfbcb27803e17d786d44bdffd495bf0d5a49c4801",
      "transactionIndex": "0x0",
      "blockHash": "0x8e5921740ca1432d51495d2bed626e33084be5ca7c79db7730648ef854e6624d",
      "blockNumber": "0x104d4e2",
      "from": "0xf1fdF86E249535cDea1Cd2Baead3c9b234d75d2A",
      "to": "0xaC8a4758B568EC09FD52F9Ec6Ff7Bc0383e710AD",
      "cumulativeGasUsed": "0x663b1",
      "gasUsed": "0x663b1",
      "contractAddress": null,
      "logs": [
        {
          "address": "0xaC8a4758B568EC09FD52F9Ec6Ff7Bc0383e710AD",
          "topics": [
            "0xcf69f68c68962239560d329d472bb52d7055ea1c8288005c8b63e7fb5065bfd1",
            "0x5257413030380000000000000000000000000000000000000000000000000000"
          ],
          "data": "0x",
          "blockHash": "0x8e5921740ca1432d51495d2bed626e33084be5ca7c79db7730648ef854e6624d",
          "blockNumber": "0x104d4e2",
          "transactionHash": "0xc464530bfa15bdad1e7ace8bfbcb27803e17d786d44bdffd495bf0d5a49c4801",
          "transactionIndex": "0x0",
          "logIndex": "0x0",
          "transactionLogIndex": "0x0",
          "removed": false
        },
        {
          "address": "0xaC8a4758B568EC09FD52F9Ec6Ff7Bc0383e710AD",
          "topics": [
            "0x0ecdeaedb3c6b93825217b7356e7eae51f1ad8a53576676edb601128d6c863b6",
            "0x5257413030380000000000000000000000000000000000000000000000000000",
            "0x75726e0000000000000000000000000000000000000000000000000000000000"
          ],
          "data": "0x000000000000000000000000495215cabc630830071f80263a908e8826a661210000000000000000000000000000000000000000000000000000000000000002",
          "blockHash": "0x8e5921740ca1432d51495d2bed626e33084be5ca7c79db7730648ef854e6624d",
          "blockNumber": "0x104d4e2",
          "transactionHash": "0xc464530bfa15bdad1e7ace8bfbcb27803e17d786d44bdffd495bf0d5a49c4801",
          "transactionIndex": "0x0",
          "logIndex": "0x1",
          "transactionLogIndex": "0x1",
          "removed": false
        },
        {
          "address": "0xaC8a4758B568EC09FD52F9Ec6Ff7Bc0383e710AD",
          "topics": [
            "0x0ecdeaedb3c6b93825217b7356e7eae51f1ad8a53576676edb601128d6c863b6",
            "0x5257413030380000000000000000000000000000000000000000000000000000",
            "0x6f7574707574436f6e6475697400000000000000000000000000000000000000"
          ],
          "data": "0x00000000000000000000000021cf5ad1311788d762f9035829f81b9f54610f0c0000000000000000000000000000000000000000000000000000000000000002",
          "blockHash": "0x8e5921740ca1432d51495d2bed626e33084be5ca7c79db7730648ef854e6624d",
          "blockNumber": "0x104d4e2",
          "transactionHash": "0xc464530bfa15bdad1e7ace8bfbcb27803e17d786d44bdffd495bf0d5a49c4801",
          "transactionIndex": "0x0",
          "logIndex": "0x2",
          "transactionLogIndex": "0x2",
          "removed": false
        },
        {
          "address": "0xaC8a4758B568EC09FD52F9Ec6Ff7Bc0383e710AD",
          "topics": [
            "0x0ecdeaedb3c6b93825217b7356e7eae51f1ad8a53576676edb601128d6c863b6",
            "0x5257413030380000000000000000000000000000000000000000000000000000",
            "0x696e707574436f6e647569740000000000000000000000000000000000000000"
          ],
          "data": "0x000000000000000000000000a397a23dda051186f202c67148c90683c413383c0000000000000000000000000000000000000000000000000000000000000002",
          "blockHash": "0x8e5921740ca1432d51495d2bed626e33084be5ca7c79db7730648ef854e6624d",
          "blockNumber": "0x104d4e2",
          "transactionHash": "0xc464530bfa15bdad1e7ace8bfbcb27803e17d786d44bdffd495bf0d5a49c4801",
          "transactionIndex": "0x0",
          "logIndex": "0x3",
          "transactionLogIndex": "0x3",
          "removed": false
        },
        {
          "address": "0xaC8a4758B568EC09FD52F9Ec6Ff7Bc0383e710AD",
          "topics": [
            "0x0ecdeaedb3c6b93825217b7356e7eae51f1ad8a53576676edb601128d6c863b6",
            "0x5257413030380000000000000000000000000000000000000000000000000000",
            "0x6c69717569646174696f6e4f7261636c65000000000000000000000000000000"
          ],
          "data": "0x00000000000000000000000088f88bb9e66241b73b84f3a6e197fbba487b1e300000000000000000000000000000000000000000000000000000000000000001",
          "blockHash": "0x8e5921740ca1432d51495d2bed626e33084be5ca7c79db7730648ef854e6624d",
          "blockNumber": "0x104d4e2",
          "transactionHash": "0xc464530bfa15bdad1e7ace8bfbcb27803e17d786d44bdffd495bf0d5a49c4801",
          "transactionIndex": "0x0",
          "logIndex": "0x4",
          "transactionLogIndex": "0x4",
          "removed": false
        }
      ],
      "status": "0x1",
      "logsBloom": "0x00000010000000000000000000000000000000000000000000000000000000000000000000000000000800000008000000000000000000000008000000000000000000000000800000000000000000000000010000000000000000000400000000000000000000000000040000000020000000000000000000000000000000000000000000000000000000000000000000000100000000400000000000280000000000000000000000000000000004000000000000000000000000000000108100000000000000000044000000000000000000000000001000000000000040000000000000000000000000000000000000000000020400020000000000000000",
      "effectiveGasPrice": "0x497f07c2b"
    },
    {
      "transactionHash": "0x68c7e180a2c94f6e3e28f065be8f463c331eaf35bfe907b2567a2ea0fa39c3e9",
      "transactionIndex": "0x1",
      "blockHash": "0x8e5921740ca1432d51495d2bed626e33084be5ca7c79db7730648ef854e6624d",
      "blockNumber": "0x104d4e2",
      "from": "0xf1fdF86E249535cDea1Cd2Baead3c9b234d75d2A",
      "to": "0xaC8a4758B568EC09FD52F9Ec6Ff7Bc0383e710AD",
      "cumulativeGasUsed": "0xcc6f6",
      "gasUsed": "0x66345",
      "contractAddress": null,
      "logs": [
        {
          "address": "0xaC8a4758B568EC09FD52F9Ec6Ff7Bc0383e710AD",
          "topics": [
            "0xcf69f68c68962239560d329d472bb52d7055ea1c8288005c8b63e7fb5065bfd1",
            "0x5257413030390000000000000000000000000000000000000000000000000000"
          ],
          "data": "0x",
          "blockHash": "0x8e5921740ca1432d51495d2bed626e33084be5ca7c79db7730648ef854e6624d",
          "blockNumber": "0x104d4e2",
          "transactionHash": "0x68c7e180a2c94f6e3e28f065be8f463c331eaf35bfe907b2567a2ea0fa39c3e9",
          "transactionIndex": "0x1",
          "logIndex": "0x5",
          "transactionLogIndex": "0x0",
          "removed": false
        },
        {
          "address": "0xaC8a4758B568EC09FD52F9Ec6Ff7Bc0383e710AD",
          "topics": [
            "0x0ecdeaedb3c6b93825217b7356e7eae51f1ad8a53576676edb601128d6c863b6",
            "0x5257413030390000000000000000000000000000000000000000000000000000",
            "0x75726e0000000000000000000000000000000000000000000000000000000000"
          ],
          "data": "0x0000000000000000000000001818ee501cd28e01e058e7c283e178e9e04a1e790000000000000000000000000000000000000000000000000000000000000002",
          "blockHash": "0x8e5921740ca1432d51495d2bed626e33084be5ca7c79db7730648ef854e6624d",
          "blockNumber": "0x104d4e2",
          "transactionHash": "0x68c7e180a2c94f6e3e28f065be8f463c331eaf35bfe907b2567a2ea0fa39c3e9",
          "transactionIndex": "0x1",
          "logIndex": "0x6",
          "transactionLogIndex": "0x1",
          "removed": false
        },
        {
          "address": "0xaC8a4758B568EC09FD52F9Ec6Ff7Bc0383e710AD",
          "topics": [
            "0x0ecdeaedb3c6b93825217b7356e7eae51f1ad8a53576676edb601128d6c863b6",
            "0x5257413030390000000000000000000000000000000000000000000000000000",
            "0x6a61720000000000000000000000000000000000000000000000000000000000"
          ],
          "data": "0x0000000000000000000000006c6d4be2223b5d202263515351034861dd9afdb60000000000000000000000000000000000000000000000000000000000000001",
          "blockHash": "0x8e5921740ca1432d51495d2bed626e33084be5ca7c79db7730648ef854e6624d",
          "blockNumber": "0x104d4e2",
          "transactionHash": "0x68c7e180a2c94f6e3e28f065be8f463c331eaf35bfe907b2567a2ea0fa39c3e9",
          "transactionIndex": "0x1",
          "logIndex": "0x7",
          "transactionLogIndex": "0x2",
          "removed": false
        },
        {
          "address": "0xaC8a4758B568EC09FD52F9Ec6Ff7Bc0383e710AD",
          "topics": [
            "0x0ecdeaedb3c6b93825217b7356e7eae51f1ad8a53576676edb601128d6c863b6",
            "0x5257413030390000000000000000000000000000000000000000000000000000",
            "0x6f7574707574436f6e6475697400000000000000000000000000000000000000"
          ],
          "data": "0x000000000000000000000000508d982e13263fc8e1b5a4e6bf59b335202e36b400000000000000000000000000000000000000000000000000000000000000ff",
          "blockHash": "0x8e5921740ca1432d51495d2bed626e33084be5ca7c79db7730648ef854e6624d",
          "blockNumber": "0x104d4e2",
          "transactionHash": "0x68c7e180a2c94f6e3e28f065be8f463c331eaf35bfe907b2567a2ea0fa39c3e9",
          "transactionIndex": "0x1",
          "logIndex": "0x8",
          "transactionLogIndex": "0x3",
          "removed": false
        },
        {
          "address": "0xaC8a4758B568EC09FD52F9Ec6Ff7Bc0383e710AD",
          "topics": [
            "0x0ecdeaedb3c6b93825217b7356e7eae51f1ad8a53576676edb601128d6c863b6",
            "0x5257413030390000000000000000000000000000000000000000000000000000",
            "0x6c69717569646174696f6e4f7261636c65000000000000000000000000000000"
          ],
          "data": "0x00000000000000000000000088f88bb9e66241b73b84f3a6e197fbba487b1e300000000000000000000000000000000000000000000000000000000000000001",
          "blockHash": "0x8e5921740ca1432d51495d2bed626e33084be5ca7c79db7730648ef854e6624d",
          "blockNumber": "0x104d4e2",
          "transactionHash": "0x68c7e180a2c94f6e3e28f065be8f463c331eaf35bfe907b2567a2ea0fa39c3e9",
          "transactionIndex": "0x1",
          "logIndex": "0x9",
          "transactionLogIndex": "0x4",
          "removed": false
        }
      ],
      "status": "0x1",
      "logsBloom": "0x00000000000000000000000000000000000000000000000000000000000000000000000000000000000800000008000000000000000000000008000000000000000000000000800000000000000000000000000000000000000000000400000000000000000000000000040001000020000000000000001000000000000000000000000000000000000000000000000000000000100000400000000000280000000000000000000000000000000004000000000000000800000000000000100100000000000000000004000000000000000000000000000000000000000040000000000000010000000000000000000000000000020400020000008000000000",
      "effectiveGasPrice": "0x497f07c2b"
    },
    {
      "transactionHash": "0xa6f533c20b085d0e576df34842166d845c28574a7802e1a461f6feb254607596",
      "transactionIndex": "0x2",
      "blockHash": "0x8e5921740ca1432d51495d2bed626e33084be5ca7c79db7730648ef854e6624d",
      "blockNumber": "0x104d4e2",
      "from": "0xf1fdF86E249535cDea1Cd2Baead3c9b234d75d2A",
      "to": "0xaC8a4758B568EC09FD52F9Ec6Ff7Bc0383e710AD",
      "cumulativeGasUsed": "0x132aa7",
      "gasUsed": "0x663b1",
      "contractAddress": null,
      "logs": [
        {
          "address": "0xaC8a4758B568EC09FD52F9Ec6Ff7Bc0383e710AD",
          "topics": [
            "0xcf69f68c68962239560d329d472bb52d7055ea1c8288005c8b63e7fb5065bfd1",
            "0x5257413031300000000000000000000000000000000000000000000000000000"
          ],
          "data": "0x",
          "blockHash": "0x8e5921740ca1432d51495d2bed626e33084be5ca7c79db7730648ef854e6624d",
          "blockNumber": "0x104d4e2",
          "transactionHash": "0xa6f533c20b085d0e576df34842166d845c28574a7802e1a461f6feb254607596",
          "transactionIndex": "0x2",
          "logIndex": "0xa",
          "transactionLogIndex": "0x0",
          "removed": false
        },
        {
          "address": "0xaC8a4758B568EC09FD52F9Ec6Ff7Bc0383e710AD",
          "topics": [
            "0x0ecdeaedb3c6b93825217b7356e7eae51f1ad8a53576676edb601128d6c863b6",
            "0x5257413031300000000000000000000000000000000000000000000000000000",
            "0x75726e0000000000000000000000000000000000000000000000000000000000"
          ],
          "data": "0x0000000000000000000000004866d5d24cdc6cc094423717663b2d3343d4eff90000000000000000000000000000000000000000000000000000000000000001",
          "blockHash": "0x8e5921740ca1432d51495d2bed626e33084be5ca7c79db7730648ef854e6624d",
          "blockNumber": "0x104d4e2",
          "transactionHash": "0xa6f533c20b085d0e576df34842166d845c28574a7802e1a461f6feb254607596",
          "transactionIndex": "0x2",
          "logIndex": "0xb",
          "transactionLogIndex": "0x1",
          "removed": false
        },
        {
          "address": "0xaC8a4758B568EC09FD52F9Ec6Ff7Bc0383e710AD",
          "topics": [
            "0x0ecdeaedb3c6b93825217b7356e7eae51f1ad8a53576676edb601128d6c863b6",
            "0x5257413031300000000000000000000000000000000000000000000000000000",
            "0x6f7574707574436f6e6475697400000000000000000000000000000000000000"
          ],
          "data": "0x0000000000000000000000001f5c294ef3ff2d2da30ea9edad490c28096c91df00000000000000000000000000000000000000000000000000000000000000fe",
          "blockHash": "0x8e5921740ca1432d51495d2bed626e33084be5ca7c79db7730648ef854e6624d",
          "blockNumber": "0x104d4e2",
          "transactionHash": "0xa6f533c20b085d0e576df34842166d845c28574a7802e1a461f6feb254607596",
          "transactionIndex": "0x2",
          "logIndex": "0xc",
          "transactionLogIndex": "0x2",
          "removed": false
        },
        {
          "address": "0xaC8a4758B568EC09FD52F9Ec6Ff7Bc0383e710AD",
          "topics": [
            "0x0ecdeaedb3c6b93825217b7356e7eae51f1ad8a53576676edb601128d6c863b6",
            "0x5257413031300000000000000000000000000000000000000000000000000000",
            "0x696e707574436f6e647569740000000000000000000000000000000000000000"
          ],
          "data": "0x0000000000000000000000001f5c294ef3ff2d2da30ea9edad490c28096c91df00000000000000000000000000000000000000000000000000000000000000fe",
          "blockHash": "0x8e5921740ca1432d51495d2bed626e33084be5ca7c79db7730648ef854e6624d",
          "blockNumber": "0x104d4e2",
          "transactionHash": "0xa6f533c20b085d0e576df34842166d845c28574a7802e1a461f6feb254607596",
          "transactionIndex": "0x2",
          "logIndex": "0xd",
          "transactionLogIndex": "0x3",
          "removed": false
        },
        {
          "address": "0xaC8a4758B568EC09FD52F9Ec6Ff7Bc0383e710AD",
          "topics": [
            "0x0ecdeaedb3c6b93825217b7356e7eae51f1ad8a53576676edb601128d6c863b6",
            "0x5257413031300000000000000000000000000000000000000000000000000000",
            "0x6c69717569646174696f6e4f7261636c65000000000000000000000000000000"
          ],
          "data": "0x00000000000000000000000088f88bb9e66241b73b84f3a6e197fbba487b1e300000000000000000000000000000000000000000000000000000000000000001",
          "blockHash": "0x8e5921740ca1432d51495d2bed626e33084be5ca7c79db7730648ef854e6624d",
          "blockNumber": "0x104d4e2",
          "transactionHash": "0xa6f533c20b085d0e576df34842166d845c28574a7802e1a461f6feb254607596",
          "transactionIndex": "0x2",
          "logIndex": "0xe",
          "transactionLogIndex": "0x4",
          "removed": false
        }
      ],
      "status": "0x1",
      "logsBloom": "0x00000000000000000000000000000000000000000000000000000000000000000000000000000000000800000028000080000000000000000008000000000000000000000000800000000000000000000000000000000000000000000400000000000000000000000000040000000020000000000000000000000000000000000000000000000000000000000000000000000100000000400000000000280000000000200000000000000000000004000000000000000000000000000000108100000000000000000044000000000000000000000000000000000000000040000000000000000000000000000000000000000000020400020000000000000000",
      "effectiveGasPrice": "0x497f07c2b"
    },
    {
      "transactionHash": "0x619752f23b67be6310722dcf85ccb5dd51723d746408ed6d39bd8f40bc033d36",
      "transactionIndex": "0x3",
      "blockHash": "0x8e5921740ca1432d51495d2bed626e33084be5ca7c79db7730648ef854e6624d",
      "blockNumber": "0x104d4e2",
      "from": "0xf1fdF86E249535cDea1Cd2Baead3c9b234d75d2A",
      "to": "0xaC8a4758B568EC09FD52F9Ec6Ff7Bc0383e710AD",
      "cumulativeGasUsed": "0x198e58",
      "gasUsed": "0x663b1",
      "contractAddress": null,
      "logs": [
        {
          "address": "0xaC8a4758B568EC09FD52F9Ec6Ff7Bc0383e710AD",
          "topics": [
            "0xcf69f68c68962239560d329d472bb52d7055ea1c8288005c8b63e7fb5065bfd1",
            "0x5257413031310000000000000000000000000000000000000000000000000000"
          ],
          "data": "0x",
          "blockHash": "0x8e5921740ca1432d51495d2bed626e33084be5ca7c79db7730648ef854e6624d",
          "blockNumber": "0x104d4e2",
          "transactionHash": "0x619752f23b67be6310722dcf85ccb5dd51723d746408ed6d39bd8f40bc033d36",
          "transactionIndex": "0x3",
          "logIndex": "0xf",
          "transactionLogIndex": "0x0",
          "removed": false
        },
        {
          "address": "0xaC8a4758B568EC09FD52F9Ec6Ff7Bc0383e710AD",
          "topics": [
            "0x0ecdeaedb3c6b93825217b7356e7eae51f1ad8a53576676edb601128d6c863b6",
            "0x5257413031310000000000000000000000000000000000000000000000000000",
            "0x75726e0000000000000000000000000000000000000000000000000000000000"
          ],
          "data": "0x00000000000000000000000032c9bba0841f2557c10d3f0d30092f138251afe60000000000000000000000000000000000000000000000000000000000000001",
          "blockHash": "0x8e5921740ca1432d51495d2bed626e33084be5ca7c79db7730648ef854e6624d",
          "blockNumber": "0x104d4e2",
          "transactionHash": "0x619752f23b67be6310722dcf85ccb5dd51723d746408ed6d39bd8f40bc033d36",
          "transactionIndex": "0x3",
          "logIndex": "0x10",
          "transactionLogIndex": "0x1",
          "removed": false
        },
        {
          "address": "0xaC8a4758B568EC09FD52F9Ec6Ff7Bc0383e710AD",
          "topics": [
            "0x0ecdeaedb3c6b93825217b7356e7eae51f1ad8a53576676edb601128d6c863b6",
            "0x5257413031310000000000000000000000000000000000000000000000000000",
            "0x6f7574707574436f6e6475697400000000000000000000000000000000000000"
          ],
          "data": "0x0000000000000000000000008e74e529049bb135cf72276c1845f5bd779749b000000000000000000000000000000000000000000000000000000000000000fe",
          "blockHash": "0x8e5921740ca1432d51495d2bed626e33084be5ca7c79db7730648ef854e6624d",
          "blockNumber": "0x104d4e2",
          "transactionHash": "0x619752f23b67be6310722dcf85ccb5dd51723d746408ed6d39bd8f40bc033d36",
          "transactionIndex": "0x3",
          "logIndex": "0x11",
          "transactionLogIndex": "0x2",
          "removed": false
        },
        {
          "address": "0xaC8a4758B568EC09FD52F9Ec6Ff7Bc0383e710AD",
          "topics": [
            "0x0ecdeaedb3c6b93825217b7356e7eae51f1ad8a53576676edb601128d6c863b6",
            "0x5257413031310000000000000000000000000000000000000000000000000000",
            "0x696e707574436f6e647569740000000000000000000000000000000000000000"
          ],
          "data": "0x0000000000000000000000008e74e529049bb135cf72276c1845f5bd779749b000000000000000000000000000000000000000000000000000000000000000fe",
          "blockHash": "0x8e5921740ca1432d51495d2bed626e33084be5ca7c79db7730648ef854e6624d",
          "blockNumber": "0x104d4e2",
          "transactionHash": "0x619752f23b67be6310722dcf85ccb5dd51723d746408ed6d39bd8f40bc033d36",
          "transactionIndex": "0x3",
          "logIndex": "0x12",
          "transactionLogIndex": "0x3",
          "removed": false
        },
        {
          "address": "0xaC8a4758B568EC09FD52F9Ec6Ff7Bc0383e710AD",
          "topics": [
            "0x0ecdeaedb3c6b93825217b7356e7eae51f1ad8a53576676edb601128d6c863b6",
            "0x5257413031310000000000000000000000000000000000000000000000000000",
            "0x6c69717569646174696f6e4f7261636c65000000000000000000000000000000"
          ],
          "data": "0x00000000000000000000000088f88bb9e66241b73b84f3a6e197fbba487b1e300000000000000000000000000000000000000000000000000000000000000001",
          "blockHash": "0x8e5921740ca1432d51495d2bed626e33084be5ca7c79db7730648ef854e6624d",
          "blockNumber": "0x104d4e2",
          "transactionHash": "0x619752f23b67be6310722dcf85ccb5dd51723d746408ed6d39bd8f40bc033d36",
          "transactionIndex": "0x3",
          "logIndex": "0x13",
          "transactionLogIndex": "0x4",
          "removed": false
        }
      ],
      "status": "0x1",
      "logsBloom": "0x00000000000000000000000000000000000000000000000000000000000000000000000000000000000800000008000000000000000000000008000000000000000000000000800000000000000000000000000000000000000000000400000000000000000000000000040000000020000000000000000000100000000000000000000000000000000000000000000000000100000000400000000000280000000000000000000000000000000004000000000000000000000000000000108100000000000000000044000000000000000008000000000000000000000040000000000000000000000000000000000000000000020600020000000000000000",
      "effectiveGasPrice": "0x497f07c2b"
    },
    {
      "transactionHash": "0x8e59d0f63251c92f3670b86f06d41e53c6b2de27e852e48828f34c3d61ef4bf9",
      "transactionIndex": "0x4",
      "blockHash": "0x8e5921740ca1432d51495d2bed626e33084be5ca7c79db7730648ef854e6624d",
      "blockNumber": "0x104d4e2",
      "from": "0xf1fdF86E249535cDea1Cd2Baead3c9b234d75d2A",
      "to": "0xaC8a4758B568EC09FD52F9Ec6Ff7Bc0383e710AD",
      "cumulativeGasUsed": "0x1ff209",
      "gasUsed": "0x663b1",
      "contractAddress": null,
      "logs": [
        {
          "address": "0xaC8a4758B568EC09FD52F9Ec6Ff7Bc0383e710AD",
          "topics": [
            "0xcf69f68c68962239560d329d472bb52d7055ea1c8288005c8b63e7fb5065bfd1",
            "0x5257413031320000000000000000000000000000000000000000000000000000"
          ],
          "data": "0x",
          "blockHash": "0x8e5921740ca1432d51495d2bed626e33084be5ca7c79db7730648ef854e6624d",
          "blockNumber": "0x104d4e2",
          "transactionHash": "0x8e59d0f63251c92f3670b86f06d41e53c6b2de27e852e48828f34c3d61ef4bf9",
          "transactionIndex": "0x4",
          "logIndex": "0x14",
          "transactionLogIndex": "0x0",
          "removed": false
        },
        {
          "address": "0xaC8a4758B568EC09FD52F9Ec6Ff7Bc0383e710AD",
          "topics": [
            "0x0ecdeaedb3c6b93825217b7356e7eae51f1ad8a53576676edb601128d6c863b6",
            "0x5257413031320000000000000000000000000000000000000000000000000000",
            "0x75726e0000000000000000000000000000000000000000000000000000000000"
          ],
          "data": "0x000000000000000000000000b22e9dbf60a5b47c8b2d0d6469548f3c2d036b7e0000000000000000000000000000000000000000000000000000000000000001",
          "blockHash": "0x8e5921740ca1432d51495d2bed626e33084be5ca7c79db7730648ef854e6624d",
          "blockNumber": "0x104d4e2",
          "transactionHash": "0x8e59d0f63251c92f3670b86f06d41e53c6b2de27e852e48828f34c3d61ef4bf9",
          "transactionIndex": "0x4",
          "logIndex": "0x15",
          "transactionLogIndex": "0x1",
          "removed": false
        },
        {
          "address": "0xaC8a4758B568EC09FD52F9Ec6Ff7Bc0383e710AD",
          "topics": [
            "0x0ecdeaedb3c6b93825217b7356e7eae51f1ad8a53576676edb601128d6c863b6",
            "0x5257413031320000000000000000000000000000000000000000000000000000",
            "0x6f7574707574436f6e6475697400000000000000000000000000000000000000"
          ],
          "data": "0x000000000000000000000000795b917ebe0a812d406ae0f99d71caf36c307e2100000000000000000000000000000000000000000000000000000000000000fe",
          "blockHash": "0x8e5921740ca1432d51495d2bed626e33084be5ca7c79db7730648ef854e6624d",
          "blockNumber": "0x104d4e2",
          "transactionHash": "0x8e59d0f63251c92f3670b86f06d41e53c6b2de27e852e48828f34c3d61ef4bf9",
          "transactionIndex": "0x4",
          "logIndex": "0x16",
          "transactionLogIndex": "0x2",
          "removed": false
        },
        {
          "address": "0xaC8a4758B568EC09FD52F9Ec6Ff7Bc0383e710AD",
          "topics": [
            "0x0ecdeaedb3c6b93825217b7356e7eae51f1ad8a53576676edb601128d6c863b6",
            "0x5257413031320000000000000000000000000000000000000000000000000000",
            "0x696e707574436f6e647569740000000000000000000000000000000000000000"
          ],
          "data": "0x000000000000000000000000795b917ebe0a812d406ae0f99d71caf36c307e2100000000000000000000000000000000000000000000000000000000000000fe",
          "blockHash": "0x8e5921740ca1432d51495d2bed626e33084be5ca7c79db7730648ef854e6624d",
          "blockNumber": "0x104d4e2",
          "transactionHash": "0x8e59d0f63251c92f3670b86f06d41e53c6b2de27e852e48828f34c3d61ef4bf9",
          "transactionIndex": "0x4",
          "logIndex": "0x17",
          "transactionLogIndex": "0x3",
          "removed": false
        },
        {
          "address": "0xaC8a4758B568EC09FD52F9Ec6Ff7Bc0383e710AD",
          "topics": [
            "0x0ecdeaedb3c6b93825217b7356e7eae51f1ad8a53576676edb601128d6c863b6",
            "0x5257413031320000000000000000000000000000000000000000000000000000",
            "0x6c69717569646174696f6e4f7261636c65000000000000000000000000000000"
          ],
          "data": "0x00000000000000000000000088f88bb9e66241b73b84f3a6e197fbba487b1e300000000000000000000000000000000000000000000000000000000000000001",
          "blockHash": "0x8e5921740ca1432d51495d2bed626e33084be5ca7c79db7730648ef854e6624d",
          "blockNumber": "0x104d4e2",
          "transactionHash": "0x8e59d0f63251c92f3670b86f06d41e53c6b2de27e852e48828f34c3d61ef4bf9",
          "transactionIndex": "0x4",
          "logIndex": "0x18",
          "transactionLogIndex": "0x4",
          "removed": false
        }
      ],
      "status": "0x1",
      "logsBloom": "0x00000000000000000000000000000000000000000000000000000000000000000000000000000000000800000008000000000000000000000008000000000000000000000000800000000000000000000000000000000000000000000400000000000000000000000000040000000020000000000000000000000000000000000000000000000000000000000000000000000100000000400000000000280000000000000000000000000000000004000000000000000000000000000001108100000000000000010044000000000000000000200000000000000000000040000000000000000000000000000000000000000000020400020000000000000000",
      "effectiveGasPrice": "0x497f07c2b"
    },
    {
      "transactionHash": "0x345ad6f4c51ad51d2176a60131f0ae19f6b3760d3cc4eaa4350f9dff28b6b06f",
      "transactionIndex": "0x5",
      "blockHash": "0x8e5921740ca1432d51495d2bed626e33084be5ca7c79db7730648ef854e6624d",
      "blockNumber": "0x104d4e2",
      "from": "0xf1fdF86E249535cDea1Cd2Baead3c9b234d75d2A",
      "to": "0xaC8a4758B568EC09FD52F9Ec6Ff7Bc0383e710AD",
      "cumulativeGasUsed": "0x2655ae",
      "gasUsed": "0x663a5",
      "contractAddress": null,
      "logs": [
        {
          "address": "0xaC8a4758B568EC09FD52F9Ec6Ff7Bc0383e710AD",
          "topics": [
            "0xcf69f68c68962239560d329d472bb52d7055ea1c8288005c8b63e7fb5065bfd1",
            "0x5257413031330000000000000000000000000000000000000000000000000000"
          ],
          "data": "0x",
          "blockHash": "0x8e5921740ca1432d51495d2bed626e33084be5ca7c79db7730648ef854e6624d",
          "blockNumber": "0x104d4e2",
          "transactionHash": "0x345ad6f4c51ad51d2176a60131f0ae19f6b3760d3cc4eaa4350f9dff28b6b06f",
          "transactionIndex": "0x5",
          "logIndex": "0x19",
          "transactionLogIndex": "0x0",
          "removed": false
        },
        {
          "address": "0xaC8a4758B568EC09FD52F9Ec6Ff7Bc0383e710AD",
          "topics": [
            "0x0ecdeaedb3c6b93825217b7356e7eae51f1ad8a53576676edb601128d6c863b6",
            "0x5257413031330000000000000000000000000000000000000000000000000000",
            "0x75726e0000000000000000000000000000000000000000000000000000000000"
          ],
          "data": "0x0000000000000000000000009c170dd80ee2ca5bfddf00cbe93e8fab2d05ba6d0000000000000000000000000000000000000000000000000000000000000001",
          "blockHash": "0x8e5921740ca1432d51495d2bed626e33084be5ca7c79db7730648ef854e6624d",
          "blockNumber": "0x104d4e2",
          "transactionHash": "0x345ad6f4c51ad51d2176a60131f0ae19f6b3760d3cc4eaa4350f9dff28b6b06f",
          "transactionIndex": "0x5",
          "logIndex": "0x1a",
          "transactionLogIndex": "0x1",
          "removed": false
        },
        {
          "address": "0xaC8a4758B568EC09FD52F9Ec6Ff7Bc0383e710AD",
          "topics": [
            "0x0ecdeaedb3c6b93825217b7356e7eae51f1ad8a53576676edb601128d6c863b6",
            "0x5257413031330000000000000000000000000000000000000000000000000000",
            "0x6f7574707574436f6e6475697400000000000000000000000000000000000000"
          ],
          "data": "0x000000000000000000000000615984f33604011fcd76e9b89803be3816276e6100000000000000000000000000000000000000000000000000000000000000fe",
          "blockHash": "0x8e5921740ca1432d51495d2bed626e33084be5ca7c79db7730648ef854e6624d",
          "blockNumber": "0x104d4e2",
          "transactionHash": "0x345ad6f4c51ad51d2176a60131f0ae19f6b3760d3cc4eaa4350f9dff28b6b06f",
          "transactionIndex": "0x5",
          "logIndex": "0x1b",
          "transactionLogIndex": "0x2",
          "removed": false
        },
        {
          "address": "0xaC8a4758B568EC09FD52F9Ec6Ff7Bc0383e710AD",
          "topics": [
            "0x0ecdeaedb3c6b93825217b7356e7eae51f1ad8a53576676edb601128d6c863b6",
            "0x5257413031330000000000000000000000000000000000000000000000000000",
            "0x696e707574436f6e647569740000000000000000000000000000000000000000"
          ],
          "data": "0x000000000000000000000000615984f33604011fcd76e9b89803be3816276e6100000000000000000000000000000000000000000000000000000000000000fe",
          "blockHash": "0x8e5921740ca1432d51495d2bed626e33084be5ca7c79db7730648ef854e6624d",
          "blockNumber": "0x104d4e2",
          "transactionHash": "0x345ad6f4c51ad51d2176a60131f0ae19f6b3760d3cc4eaa4350f9dff28b6b06f",
          "transactionIndex": "0x5",
          "logIndex": "0x1c",
          "transactionLogIndex": "0x3",
          "removed": false
        },
        {
          "address": "0xaC8a4758B568EC09FD52F9Ec6Ff7Bc0383e710AD",
          "topics": [
            "0x0ecdeaedb3c6b93825217b7356e7eae51f1ad8a53576676edb601128d6c863b6",
            "0x5257413031330000000000000000000000000000000000000000000000000000",
            "0x6c69717569646174696f6e4f7261636c65000000000000000000000000000000"
          ],
          "data": "0x00000000000000000000000088f88bb9e66241b73b84f3a6e197fbba487b1e300000000000000000000000000000000000000000000000000000000000000001",
          "blockHash": "0x8e5921740ca1432d51495d2bed626e33084be5ca7c79db7730648ef854e6624d",
          "blockNumber": "0x104d4e2",
          "transactionHash": "0x345ad6f4c51ad51d2176a60131f0ae19f6b3760d3cc4eaa4350f9dff28b6b06f",
          "transactionIndex": "0x5",
          "logIndex": "0x1d",
          "transactionLogIndex": "0x4",
          "removed": false
        }
      ],
      "status": "0x1",
      "logsBloom": "0x00000000000000000000000000000000000000000000000000000000000000000000000000000000000800000008000000000000000000000008000000000000000000000000800000000000000000000000000000000000000000000400000000000000000000000000040000000020000000000000000000000000000000000000000000000000000000000000000000000180000000400000000000280000000000000000000000000000000004000000000000000080000000000000108100020000000000000044000000000000000000000000000000000000000040000000000000000000000000000000000000000000020400020000000000000000",
      "effectiveGasPrice": "0x497f07c2b"
    },
    {
      "transactionHash": "0x1230f87634d91dd3241876890e2e4cead1a3bf107624a23b0ef9448f8cd07e61",
      "transactionIndex": "0x6",
      "blockHash": "0x8e5921740ca1432d51495d2bed626e33084be5ca7c79db7730648ef854e6624d",
      "blockNumber": "0x104d4e2",
      "from": "0xf1fdF86E249535cDea1Cd2Baead3c9b234d75d2A",
      "to": "0xaC8a4758B568EC09FD52F9Ec6Ff7Bc0383e710AD",
      "cumulativeGasUsed": "0x2a74af",
      "gasUsed": "0x41f01",
      "contractAddress": null,
      "logs": [
        {
          "address": "0xaC8a4758B568EC09FD52F9Ec6Ff7Bc0383e710AD",
          "topics": [
            "0xcf69f68c68962239560d329d472bb52d7055ea1c8288005c8b63e7fb5065bfd1",
            "0x4755534400000000000000000000000000000000000000000000000000000000"
          ],
          "data": "0x",
          "blockHash": "0x8e5921740ca1432d51495d2bed626e33084be5ca7c79db7730648ef854e6624d",
          "blockNumber": "0x104d4e2",
          "transactionHash": "0x1230f87634d91dd3241876890e2e4cead1a3bf107624a23b0ef9448f8cd07e61",
          "transactionIndex": "0x6",
          "logIndex": "0x12",
          "transactionLogIndex": "0x0",
          "removed": false
        },
        {
          "address": "0xaC8a4758B568EC09FD52F9Ec6Ff7Bc0383e710AD",
          "topics": [
            "0x0ecdeaedb3c6b93825217b7356e7eae51f1ad8a53576676edb601128d6c863b6",
            "0x4755534400000000000000000000000000000000000000000000000000000000",
            "0x6a61720000000000000000000000000000000000000000000000000000000000"
          ],
          "data": "0x000000000000000000000000f2e7a5b83525c3017383deed19bb05fe34a62c270000000000000000000000000000000000000000000000000000000000000001",
          "blockHash": "0x8e5921740ca1432d51495d2bed626e33084be5ca7c79db7730648ef854e6624d",
          "blockNumber": "0x104d4e2",
          "transactionHash": "0x1230f87634d91dd3241876890e2e4cead1a3bf107624a23b0ef9448f8cd07e61",
          "transactionIndex": "0x6",
          "logIndex": "0x13",
          "transactionLogIndex": "0x1",
          "removed": false
        },
        {
          "address": "0xaC8a4758B568EC09FD52F9Ec6Ff7Bc0383e710AD",
          "topics": [
            "0x0ecdeaedb3c6b93825217b7356e7eae51f1ad8a53576676edb601128d6c863b6",
            "0x4755534400000000000000000000000000000000000000000000000000000000",
            "0x696e707574436f6e647569740000000000000000000000000000000000000000"
          ],
          "data": "0x0000000000000000000000006934218d8b3e9ffcabee8cd80f4c1c4167afa6380000000000000000000000000000000000000000000000000000000000000004",
          "blockHash": "0x8e5921740ca1432d51495d2bed626e33084be5ca7c79db7730648ef854e6624d",
          "blockNumber": "0x104d4e2",
          "transactionHash": "0x1230f87634d91dd3241876890e2e4cead1a3bf107624a23b0ef9448f8cd07e61",
          "transactionIndex": "0x6",
          "logIndex": "0x14",
          "transactionLogIndex": "0x2",
          "removed": false
        }
      ],
      "status": "0x1",
      "logsBloom": "0x00000000000000000000000000000000000000000000000000000000000000000000000000000000000800000008000000000000000000004000000000000000000000000000000000000000000000000000000000000000000010000000000000000000000000000000000001000020000000000000001000000000000000000000000000000000000000000000000000000100000000400000000000200000000000000000000000000000000004000000000000000000000000000000008000000000000000000044001000000000000000000000000000000000000040000000000000000000000000000000000000000000000000020000008000000000",
      "effectiveGasPrice": "0x497f07c2b"
    },
    {
      "transactionHash": "0x728b8f0aefae7ce919019f4bd7a611fedbf9af1cf6abe03385de7ec9a7c121c4",
      "transactionIndex": "0x0",
      "blockHash": "0x931514a3ec928d807ec6393503de27e1688d5a7dc2c9e6840c8431efcb4ef6e1",
      "blockNumber": "0x104d4e3",
      "from": "0xf1fdF86E249535cDea1Cd2Baead3c9b234d75d2A",
      "to": "0xaC8a4758B568EC09FD52F9Ec6Ff7Bc0383e710AD",
      "cumulativeGasUsed": "0xb989",
      "gasUsed": "0xb989",
      "contractAddress": null,
      "logs": [
        {
          "address": "0xaC8a4758B568EC09FD52F9Ec6Ff7Bc0383e710AD",
          "topics": [
            "0xdd0e34038ac38b2a1ce960229778ac48a8719bc900b6c4f8d0475c6e8b385a60",
            "0x000000000000000000000000be8e3e3618f7474f8cb1d074a26affef007e98fb"
          ],
          "data": "0x",
          "blockHash": "0x931514a3ec928d807ec6393503de27e1688d5a7dc2c9e6840c8431efcb4ef6e1",
          "blockNumber": "0x104d4e3",
          "transactionHash": "0x728b8f0aefae7ce919019f4bd7a611fedbf9af1cf6abe03385de7ec9a7c121c4",
          "transactionIndex": "0x0",
          "logIndex": "0x0",
          "transactionLogIndex": "0x0",
          "removed": false
        }
      ],
      "status": "0x1",
      "logsBloom": "0x00000000000000000000000000000000000000000000000000000000000000000000000000000000000000000000000000404000000000000000000000000000000000400000000000000000000000000000000000000000000000000000000000000000000000000000000000000020000000000000000000000000000000000000000080000000000000000000000000000000000000400000000000000000000000000000000000000000000000000000000000000000000000000000000000000000000000000000000000000000000020000000000000000000000010000000000000000000000000000000000000000000000000020000000000000000",
      "effectiveGasPrice": "0x4326b287c"
    },
    {
      "transactionHash": "0x1326f69218e2de91575622f76e96d40c63f666dff086ac65663d84b89c280651",
      "transactionIndex": "0x1",
      "blockHash": "0x931514a3ec928d807ec6393503de27e1688d5a7dc2c9e6840c8431efcb4ef6e1",
      "blockNumber": "0x104d4e3",
      "from": "0xf1fdF86E249535cDea1Cd2Baead3c9b234d75d2A",
      "to": "0xaC8a4758B568EC09FD52F9Ec6Ff7Bc0383e710AD",
      "cumulativeGasUsed": "0x115a0",
      "gasUsed": "0x5c17",
      "contractAddress": null,
      "logs": [
        {
          "address": "0xaC8a4758B568EC09FD52F9Ec6Ff7Bc0383e710AD",
          "topics": [
            "0x184450df2e323acec0ed3b5c7531b81f9b4cdef7914dfd4c0a4317416bb5251b",
            "0x000000000000000000000000f1fdf86e249535cdea1cd2baead3c9b234d75d2a"
          ],
          "data": "0x",
          "blockHash": "0x931514a3ec928d807ec6393503de27e1688d5a7dc2c9e6840c8431efcb4ef6e1",
          "blockNumber": "0x104d4e3",
          "transactionHash": "0x1326f69218e2de91575622f76e96d40c63f666dff086ac65663d84b89c280651",
          "transactionIndex": "0x1",
          "logIndex": "0x1",
          "transactionLogIndex": "0x0",
          "removed": false
        }
      ],
      "status": "0x1",
      "logsBloom": "0x00000000000000000000000000000000000000000000000000000000000000000000000000000000000000000000000000000000000000000002000000000000000000000000000000000000000000000000000000000000002000000000000000000000000000000000000000000020000000000000000000000020000000000000000000000000000000000000000000000000000000400000000000000000000000000000000000000000000000000000000000000000000000000000000000000000100000000000000000000000000000000000000000000000000000000000000000000000000000000000000000000004000000020040000000000000",
      "effectiveGasPrice": "0x4326b287c"
    }
  ],
  "libraries": [],
  "pending": [],
  "path": "/home/miguel/dev/mip21-registry/broadcast/DeployRwaRegistry.s.sol/1/run-latest.json",
  "returns": {
    "0": {
      "internal_type": "address",
      "value": "0xaC8a4758B568EC09FD52F9Ec6Ff7Bc0383e710AD"
    }
  },
  "timestamp": 1682070740,
  "chain": 1,
  "multi": false,
  "commit": "4940c70"
}